:100000000C94BC020C9403030C9403030C940303A0
:100010000C9403030C9403030C9403030C94030348
:100020000C9403030C9403030C941F240C94DB2303
:100030000C9422250C9403030C9403030C940303E7
:100040000C9403030C9403030C9403030C94030318
:100050000C9403030C94FE240C9403030C940303EC
:100060000C9403030C9403030C9403030C940303F8
:100070000C9403030C9403030C9403030C940303E8
:100080000C9403030C9403030C9403030C940303D8
:100090000C9403030C9403030C9403030C940303C8
:1000A0000C9403030C9403030C940303050109024D
:1000B000A10185020901A100050919012905150001
:1000C00025019505750181029501750381010501E1
:1000D000093009311581257F950275088106093897
:1000E0001581257F950175088106050C0A380215D2
:1000F00081257F950175088106C0C005010980A191
:1001000001850319012AB700150126B7009501756D
:10011000108100C0050C0901A101850419012AA064
:1001200002150126A002950175108100C005010984
:1001300006A1018505050719E029E71500250195A8
:1001400008750181020507190029EF1500250195A1
:10015000F0750181020508190129059505750191C0
:1001600002950175039101C00660FF0961A10109B3
:1001700062150026FF0095207508810209631500AD
:1001800026FF00952075089102C005010906A1010E
:10019000050719E029E71500250195087501810279
:1001A0009501750881010507190029FF150026FF33
:1001B0000095067508810005081901290595057542
:1001C000019102950175039101C00000000000003B
:1001D000000000000000000000000000000000001F
:1001E00000000000000000000000000000007E0F82
:1001F00000D4FFFFFFC700000078000000000000EF
:1002000000002A2B28000000000000000000000071
:10021000000000000029000000002C1E34202122D4
:1002200024342627252E362D3738271E1F2021223D
:10023000232425263333362E37381F0405060708B6
:10024000090A0B0C0D0E0F101112131415161718A6
:10025000191A1B1C1D2F3130232D350405060708E4
:10026000090A0B0C0D0E0F10111213141516171886
:10027000191A1B1C1D2F3130354C000101010101E1
:10028000010101010202020202020202020303034F
:10029000030303030304040404040404050505051F
:1002A00005060606060607070707070808080809DF
:1002B0000909090A0A0A0B0B0B0C0C0C0D0D0D0E8B
:1002C0000E0E0F0F0F101011111112121313141420
:1002D000151516161717181819191A1A1B1B1C1D95
:1002E0001D1E1E1F202021222223242425262627EE
:1002F0002829292A2B2C2D2D2E2F30313232333420
:1003000035363738393A3B3C3D3E3F404142434425
:1003100045464748494A4C4D4E4F50515354555607
:1003200058595A5B5D5E5F616264656668696B6CB3
:100330006D6F7072737577787A7B7D7E808283852E
:1003400087888A8C8E8F91939596989A9C9EA0A26E
:10035000A3A5A7A9ABADAFB1B3B5B7BABCBEC0C278
:10036000C4C6C9CBCDCFD1D4D6D8DBDDDFE2E4E73C
:10037000E9EBEEF0F3F5F8FAFDFF29001E001F008F
:100380002000210022002300240025002600270051
:100390002D002E002A0053002B0014001A00080024
:1003A000150017001C0018000C00120013002F008D
:1003B00030003100540039610400160007000900C4
:1003C0000A000B000D000E000F003300340028005F
:1003D00055005600E1001D001B0006001900050035
:1003E00011001000360037003800E5005F006000A3
:1003F0006100E000E300E200AA00C25CA9002C005A
:10040000E6000151E40059005A005B005C005D0009
:1004100000000000000000000000520050005100E9
:100420004F004C006200630058005E00570001005E
:1004300001000100010001000100010001000100B4
:1004400001000100010001000100010001000100A4
:10045000010001000100005C010001000100010039
:10046000010046000100010001000100010001003F
:100470000100010001000100010001000100010074
:100480000100010001000100010001000100010064
:100490000100010001000100010001000100010054
:1004A0000100010001000100010001000100010044
:1004B0000100010001000100010001000100010034
:1004C0000100010000000000000000000000C95C05
:1004D000C25CCA5CC35C01000100010001000100B4
:1004E000010009025B00030100A0FA0904000001F9
:1004F00003010100092111010001224000070581CB
:100500000308000109040100020300000009211191
:1005100001000122220007058203200001070503D4
:100520000320000109040200010300000009211159
:1005300001000122BC000705840320000112010014
:1005400002000000084A4182000100010200010E81
:100550000341004B003800320056004500000012F5
:1005600003410074006C0061006E00740069007348
:10057000000000040309040011241FBECFEFDAE0DD
:10058000DEBFCDBF04B603FE27C080910409909161
:100590000509A0910609B09107098730904BA74043
:1005A000B04BD1F41092040910920509109206097B
:1005B0001092070914BE84B7877F84BF0FB6F894E2
:1005C000A89580916000886180936000109260001F
:1005D0000FBEE0E0F8E3099529E0A0E1B3E001C037
:1005E0001D92A430B207E1F713E0A0E0B1E0E6E12C
:1005F000F4E602C005900D92A031B107D9F70E9430
:1006000045250C94A8310C9400009091FE0893703D
:1006100051F0811109C094609093FE081092180166
:1006200081E08093FD0808958A3210F0946AF4CF37
:10063000880F880F982BF0CF9091FE08937061F08F
:100640008093FF0860930009473908F046E940931A
:10065000010981E08093FD080895E8EDF0E08081D4
:100660008E7F80831092E2001092DA001092E100F7
:10067000A0EEB0E08C9181608C9380818F77808335
:1006800019BCA7EDB0E08C918E7F8C9380818F7E1A
:10069000808310929C0808952091E4003091E50039
:1006A00095E6A9012091EC00822F817020FF06C001
:1006B0008091E80080FF06C080E008952091E80066
:1006C00022FD1AC08091C208882389F0853089F004
:1006D0008091EB0085FD0FC02091E4003091E50092
:1006E00042175307F9F29150E1F684E0089582E051
:1006F000089583E0089581E00895EF92FF920F93AB
:100700001F93CF937C018B010E944C03C82F811152
:1007100017C08091E80085FD0BC08091E8008E77BE
:100720008093E8000E944C03882399F3C82F08C0E7
:10073000F70181917F018093F1000150110949F780
:100740008C2FCF911F910F91FF90EF900895809182
:10075000C40887FF13C08091E80082FF06C0809123
:10076000E8008B778093E80004C08091C208811173
:10077000F2CF08958091C2088823D9F38091E800D0
:1007800080FFF8CF8091E8008E77ECCF982F909380
:10079000E900242F762F50E0891731F07091EC009A
:1007A0002091ED005091F00021FD07C09F5F973030
:1007B00071F78093E90081E008953091EB003E7F6E
:1007C0003093EB003091ED003D7F3093ED003091A0
:1007D000EB0031603093EB007093EC002093ED0060
:1007E0005093F0002091EE0027FDE0CF80E00895C7
:1007F000CF92DF92EF92FF920F931F93CF93DF93ED
:10080000C8EDD0E088818F7E8883E7EDF0E08081BD
:100810008160808384E082BF81E080939C0888812E
:100820008E7F888302EE10E0F80110821092DA00C9
:1008300081EEC82ED12CF601108288818F778883B3
:1008400088818068888388818F7D888319BC109215
:10085000C2081092C3081092C1081092C00890EE0E
:10086000E92EF12CF70180818B7F80838881816064
:10087000888342E060E080E00E94C603F601808148
:100880008E7F8083F8018081816080838081886091
:100890008083F70180818E7F808388818061888357
:1008A000DF91CF911F910F91FF90EF90DF90CF904C
:1008B0000895FC018091CA089091CB08861797078C
:1008C000A0F06115710529F49091E8009E7790934E
:1008D000E80090E06115710551F4911108C0809114
:1008E000E80082FF34C080E00895BC01F2CF80911F
:1008F000C2088823C1F18530C1F18091E80083FDF1
:1009000030C08091E80082FDEACF8091E80080FF4E
:10091000E1CF8091F3002091F200382F611571052D
:1009200019F02830310558F091E02830310509F0F0
:1009300090E02091E8002E772093E800CBCF8191C2
:100940008093F100615071092F5F3F4FE7CF809195
:10095000C208882341F0853041F08091E80083FF90
:10096000BECF81E0089582E0089583E008958091EC
:100970009F0808959C014FB7F89480919308909137
:100980009408A0919508B09196084FBF821B930BD5
:1009900008952FB7F894609193087091940880910E
:1009A0009508909196082FBF08952FB7F8948091DD
:1009B000930890919408A0919508B09196082FBF44
:1009C000089520919108309192082817390771F005
:1009D0009093920880939108E0918F08F09190088D
:1009E000309721F00084F185E02D0994089520913D
:1009F0008D0830918E082817390771F090938E0872
:100A000080938D08E0918F08F0919008309721F045
:100A10000680F781E02D09940895E0918F08F09108
:100A20009008309721F00190F081E02D099480E04A
:100A30000895FA01811101C0FB010994E1E6F7E094
:100A4000818360834283339698E0ED38F907C1F7DC
:100A50000895FC01EE0FFF1FE80FF91FEF59F84F43
:100A60006183408322830895EEEFF8E0248130E132
:100A7000231B08F420E0248381E08093FD0808957F
:100A8000EEEFF8E0248130E1230F08F42FEF248308
:100A900081E08093FD080895EEEFF8E0438120E1C6
:100AA000421B08F440E08181628190E00C941C03B9
:100AB000EEEFF8E0438120E1420F08F44FEF81812F
:100AC000628190E00C941C03EEEFF8E0628120E17B
:100AD000621B08F460E08181438190E00C941C0368
:100AE000EEEFF8E0628120E1620F08F46FEF8181A0
:100AF000438190E00C941C03EEEFF8E08181438188
:100B000062818850990B0C941C03EEEFF8E0818110
:100B100090E04381628108960C941C038091FE084A
:100B200086958695815009F489E20C94050380919D
:100B3000FE08869586958F5F8A3208F081E00C94D6
:100B400005030C941E050C942905EF92FF920F9358
:100B50009701201B31092F3F310519F010F02FEFBD
:100B600030E02095382F320F08F43FEF832F0F919C
:100B7000FF90EF900895EF92FF920F939701201B43
:100B800031092F3F310519F010F02FEF30E0322FEF
:100B90003095482F430F08F44FEF842F620F0F91C9
:100BA000FF90EF900895EF92FF920F93972F0934E3
:100BB00038F4B701601B71096F3F710519F010F02F
:100BC0006FEF70E0485F5F4F4131510540F0A90180
:100BD000485F5F4F4131510510F06FEF70E0609555
:100BE000482F460F08F44FEF842F37FF02C02D5FC8
:100BF0003F4F35952795359527956091FF08620FF2
:100C0000792F0F91FF90EF900895EF92FF920F933D
:100C10001F930E0D1F2D111DF90137FF03C0F19514
:100C2000E195F10924E0EE0FFF1F2A95E1F7EF3F70
:100C3000F10519F014F0EFEFF0E09A0157FF03C04F
:100C400031952195310994E0220F331F9A95E1F7F0
:100C50002E173F070CF4F901E00FF11FEF3FF105EC
:100C600019F010F0EFEFF0E0E095282F3E2F230F62
:100C700008F42FEF822F1F910F91FF90EF900895AE
:100C8000EF92FF920F93970195E0099F200D311D80
:100C900011242F3F310519F010F02FEF30E020958F
:100CA000382F320F08F43FEF832F0F91FF90EF9012
:100CB000089522E8241B08F420E0620F089540956F
:100CC000282F429F412D1124842F0895E42FF0E016
:100CD000EE0FFF1FED51FE4F9081921B97FD9195F6
:100CE000292F38E1239F212D1124620F08950F939E
:100CF0001F9310E0F801EE0FFF1FED51FE4F9081A2
:100D0000965697FD9195000F111FF801EC51FE4F7B
:100D100000810452110B2003F001219FF00D1124DA
:100D200008E310E0091B110997FD1395400390019A
:100D3000419F300D1124E20FF31F9F01220F331F3B
:100D40002E0F3F1F37FF02C021583F4F220F232F86
:100D5000221F330B620F1F910F9108950F931F9362
:100D6000522F10E0F801EE0FFF1FEC51FE4FA08153
:100D7000A452BB0B9D015203F001539FF00D1124AF
:100D8000000F111FD801AD51BE4F0C910656110B2B
:100D900040039001419F300D11242E0F3F1F37FF5C
:100DA00002C0215C3F4F96E0359527959A95E1F773
:100DB000620F1F910F9108950F931F93522F10E010
:100DC000F801EE0FFF1FEC51FE4FA081A452BB0BA8
:100DD0009D015203F001539FF00D1124000F111FCC
:100DE000D801AD51BE4F0C910656110B4003900136
:100DF000419F300D11242E0F3F1F37FF02C0215895
:100E00003F4F220F232F221F330B620F1F910F9191
:100E10000895EF920F93972F23E0029FB0011124C2
:100E2000759567956E0D792F0F91EF900895322F7C
:100E300050E0FA01EE0FFF1FEC51FE4F90819452EB
:100E400097FD9195440F551FFA01ED51FE4F2081FA
:100E5000231B330B290F311D97FD3A95620F08951F
:100E6000E42FF0E0EE0FFF1FEC51FE4F6081621B9C
:100E70000895E42FF0E0EE0FFF1FED51FE4F60816B
:100E8000621B0895622F0895E42FF0E0EE0FFF1F1C
:100E9000ED51FE4F408134EE439F412D1124E82F48
:100EA000F0E050E0445E5F4FDA01A21BB1099D0102
:100EB000B7FF03C031952195310993E0220F331F0D
:100EC0009A95E1F7AF01421B530B9A0157FD20E0C1
:100ED000582F259F212D1124822F0895E42FF0E013
:100EE000EE0FFF1FED51FE4F408134EE439F412D29
:100EF0001124E72FF0E050E0445E5F4FDA01A21BBF
:100F0000B1099D01B7FF03C031952195310993E0E7
:100F1000220F331F9A95E1F7AF01421B530B9A0141
:100F200057FD20E0279F212D1124722F0895FC01E9
:100F30009B01009729F480E077FF2BC080E808959B
:100F4000AC0197FF04C044275527481B590BB90132
:100F5000640F751F37FD10C0241B350BC901A5E0B8
:100F6000880F991FAA95E1F70E94603080E2861BE6
:100F7000F7FF0FC081950895CB0165E0880F991F99
:100F80006A95E1F7BA01621B730B0E94603080E63C
:100F9000EECF0895EF920F93CF93DF93D72FC82F03
:100FA000C9010E19BA010E949707602F681B7D2F97
:100FB0008C2FDF91CF910F91EF9008950F93CF93E6
:100FC000DF93D72FC82FC901BA010E949707682F56
:100FD000600F7D2F8C2FDF91CF910F910895EF92AD
:100FE0000F931F93CF93DF93D62FC72F182FC901CD
:100FF0000E19010FBA010E949707081B202F219F8D
:10100000212D1124822F6D2F7C2FDF91CF911F91E5
:101010000F91EF900895EF920F931F93CF93DF936B
:10102000D62F172FC82FC9010E19070FBA010E941A
:101030009707702F781B719F712D11246D2F8C2FA6
:10104000DF91CF911F910F91EF9008950F931F9310
:10105000CF93DF93D62FC72F182FC901212F201B25
:10106000022FBA010E949707982F990F990F891B99
:10107000800F282F219F212D1124822F6D2F7C2F4F
:10108000DF91CF911F910F9108950F931F93CF93ED
:10109000DF93D62F172FC82FC901272F201B022F10
:1010A000BA010E949707982F990F990F782F791BF3
:1010B000700F719F712D11246D2F8C2FDF91CF91A7
:1010C0001F910F910895E82F86FDE0952E2F2F7028
:1010D00086FD2F5FE695E695E695E670F0E0EE5822
:1010E000FE4F9181929F902D212D112492959F70FA
:1010F0002295207F922B2081920F87FD919580E889
:10110000890F08950F931F93CF93DF938B01D82FEF
:10111000C42F822F0E946308EC2FF0E0EE0FFF1F18
:10112000ED51FE4F90819058890F87FD8195880F72
:10113000682F2CE0629F612D1124600F712F8D2F7D
:10114000DF91CF911F910F910895AC0182309105ED
:1011500008F408959FEF413E8EE1580740F49A014C
:1011600095E0369527959A95E1F798E0920F61E022
:10117000E62FE90FFF27FF1F9F0135952795822F47
:10118000229FF001239FF00DF00D11244E175F07F1
:1011900038F49FEF920F961758F78FEF860F089548
:1011A0002F3FE9F361E0620FF6CF0F93CF93DF9308
:1011B000D72FC82F47FD419583E390E0841B910909
:1011C00047FD9395889FB001899F700D700D112484
:1011D000229FC001239F900D900D1124860F971F11
:1011E0000E94A508982F990F890F682F600F7D2FF7
:1011F0008C2FDF91CF910F91089530E020E0869FF2
:10120000212D969F200D311D1124C9010895AF9203
:10121000BF92CF92DF92FF920F931F93CF93DF93F2
:10122000362F472FE82FF0E0E658FD4F71110FC021
:10123000E4918E2F2E2F6E2F722FDF91CF911F9161
:101240000F91FF90DF90CF90BF90AF900895C72F80
:10125000D0E02491F22E022F10E056E0659FC001ED
:101260001124EFEFF0E0BF010E944C30832F90E09B
:10127000880F991F35E5369FD001379FB00D112497
:101280008A1B9B0B982F990F980F6F01CC1ADD0AC0
:10129000C09ED001C19EB00DD09EB00D11248B2FE9
:1012A000499FA0011124452F55276F01C41AD50A63
:1012B000C09EA001C19E500DD09E500D11245F0113
:1012C000A91AB108AC9E6001AD9ED00CBC9ED00C9A
:1012D0001124CD2CDD24EC19FD09E09FE001E19FF4
:1012E000D00DF09FD00D1124ED2F62307105A1F0CB
:1012F00050F46115710509F49ECF6130710581F0DC
:10130000EB2F852F98CF6430710569F080F066303F
:10131000710509F490CFF4CFE22F2B2F8D2F8BCFB7
:10132000E22F252F88CFEB2F822F2D2F84CF2B2F2D
:101330008F2DE52F80CF2F923F925F926F927F92F9
:101340008F929F92AF92BF92CF92DF92EF92FF92D5
:101350000F931F93CF93DF93CDB7DEB72A970FB6C6
:10136000F894DEBF0FBECDBF8B837E836D8320914B
:10137000150184E1289F802D11248F838C5E898341
:101380008A83853610F034E63A838091D0088C83C6
:10139000FF81EF2FF0E0FA87E987CF01880F991FCF
:1013A0009C012D513E4F69013B81832F90E0FC0150
:1013B0003196F887EF838A8199859817E8F081E064
:1013C000E981E43608F080E02A960FB6F894DEBF93
:1013D0000FBECDBFDF91CF911F910F91FF90EF9086
:1013E000DF90CF90BF90AF909F908F907F906F9045
:1013F0005F903F902F900895E985FA85E555FD4F60
:101400008081909116018923F1F02090FF0830909F
:1014100000092F8138852053374F39015B8010E058
:10142000FC815F16D0F020910109129F112D11242B
:10143000B101812F0E940709462F282F672F898528
:101440009A850E94A30529853A852F5F3F4F3A87E9
:10145000298732E0C30ED11CAECFF30181913F0149
:10146000F601A080A81ABB088180F3018781881A41
:101470009908AA9C9001AB9C300D300D1124889CDA
:10148000C001899C900D900D1124820F931F0E9422
:10149000A508082F6091020921E0620F08F46FEFA0
:1014A000F301EE0FFF1FE05DF840858996890E94E9
:1014B000FD087C019401A501B101812FED81FE8120
:1014C00009951B015394182FABCFCF92DF92EF9267
:1014D000FF920F931F93CF93DF938C01C09115015F
:1014E00084E1C89FC02D112424E1D22EDC0ECD2C26
:1014F00024E62D1510F494E6C92E2091020931E05E
:10150000230F08F42FEF30E050E040E06FEF7FEF63
:1015100080E090E00E9445317901D0E02C2FCC157D
:1015200070F081E0F3E6FD1508F480E0DF91CF91E3
:101530001F910F91FF90EF90DF90CF900895FE01E3
:10154000E555FD4F808190911601892311F140915D
:10155000D0084150042E000C550B47FF1CC0C7019A
:101560006091020921E0620F08F46FEF0E94FD080C
:10157000AC016091FF087091000980910109F801A8
:1015800009950E940709462F282F672FCE010E9438
:10159000A3052196C3CFFA01E053F74F8189821347
:1015A0000AC0FA01EE0FFF1FE053F74F818D928DB5
:1015B0008E159F05A8F241505109CFCFDF92EF92CF
:1015C000FF920F931F93CF93DF937C01C09115017E
:1015D00084E1C89FC02D112414E11C0F012F153682
:1015E00008F004E6609102096695669521E0620FB5
:1015F00008F46FEF8091CC089091CD080E94FD080F
:10160000D82ED0E0C01760F081E0143608F080E0FA
:10161000DF91CF911F910F91FF90EF90DF90089590
:10162000FE01E555FD4F808190911601892391F0CF
:101630006091FF0870910009809101092D2D4C2FB8
:10164000F70109950E940709462F282F672FCE0121
:101650000E94A3052196D6CF9F92AF92BF92CF92C0
:10166000DF92EF92FF920F931F93CF93DF936C0162
:10167000C091150184E1C89FC02D112414E11C0FF5
:10168000B12E153610F034E6B32E6091020966953E
:1016900066958091CC089091CD080E94FD08F82EA7
:1016A00080E48F0D0E94630890E8A92EA80E8F2D6C
:1016B0000E94630820E8922E980ED0E0CB1580F0AF
:1016C00081E0143608F080E0DF91CF911F910F91F7
:1016D000FF90EF90DF90CF90BF90AF909F900895D4
:1016E000FE01E555FD4F8081909116018923A1F0FF
:1016F0006091FF087091000980910109EF2C0C2F77
:10170000292D4A2DF60109950E940709462F282FF9
:10171000672FCE010E94A3052196D0CF7F928F9292
:101720009F92AF92BF92CF92DF92EF92FF920F9370
:101730001F93CF93DF935C01C091150184E1C89F93
:10174000C02D112414E11C0FF12E153610F034E6D3
:10175000F32E6091020966958091CC089091CD0896
:101760000E94FD08782ED0E0CF1590F081E014366D
:1017700008F080E0DF91CF911F910F91FF90EF90E3
:10178000DF90CF90BF90AF909F908F907F90089503
:10179000FE01E555FD4F8081909116018923C9F125
:1017A000CE01880F991F87579E4FFC01E65AFF4FC5
:1017B0002081422F4656550B6A01855A9F4FFC01E6
:1017C0008081282F2452330B4901449F9001459F6B
:1017D000300D300D1124889CC001899C900D900D16
:1017E0001124820F931F0E94A508082F6091FF0803
:1017F0007091000980910109E72C9401A601F5017F
:1018000009950E940709462F282F672FCE010E94B5
:10181000A3052196A9CFCF92DF92EF92FF920F936B
:101820001F93CF93DF937C01C091150184E1C89F82
:10183000C02D112414E11C0FD12E153610F034E602
:10184000D32E6091020966958091CC089091CD08C5
:101850000E94FD08C82ED0E0CD1568F081E0143656
:1018600008F080E0DF91CF911F910F91FF90EF90F2
:10187000DF90CF900895FE01E555FD4F8081909156
:101880001601892311F1CE01880F991F87579E4FAA
:10189000FC01E55AFF4F20812452330B865A9F4F9B
:1018A000FC0140814656550B6091FF08709100097C
:1018B000809101090C2DF70109950E940709462F17
:1018C000282F672FCE010E94A3052196C5CF0E9425
:1018D000D5049C0190915D0780915E07982B21F0C3
:1018E00030935A072093590790915F0780916007C2
:1018F000982B21F03093580720935707E0918F08D9
:10190000F0919008309749F082E080935B07048063
:10191000F581E02D8BE597E00994089590915D079E
:10192000803F59F480915E0787FF0DC010925E07DB
:1019300091110BC01092550708C0813F81F480912E
:101940005E0718169CF3992381F080915F079091B0
:101950006007892B09F064C0109254070895823FF4
:1019600049F497FFF0CF10925D0780915E078111D7
:10197000ECCFE0CF833F19F41916ACF3E4CF2091FC
:101980005F07893F29F41216F4F610925F07DBCF48
:101990008A3F19F427FFD7CFF8CF209160078B3FFC
:1019A00029F427FFD0CF10926007CDCF8C3F19F4D8
:1019B0001216CCF3C8CF843F31F480915C078E7F40
:1019C00080935C07C0CF853F21F480915C078D7FB9
:1019D000F7CF863F21F480915C078B7FF1CF873F63
:1019E00021F480915C07877FEBCF883F21F48091C1
:1019F0005C078F7EE5CF8D3F31F4809156078E7F57
:101A000080935607A0CF8E3F21F4809156078D7F9B
:101A1000F7CF8F3F09F097CF809156078B7FF0CF9C
:101A200008958091560780FD16C081FD16C082FD85
:101A300016C0809154078823A1F0883280F428E0F2
:101A4000829FC001112468E270E00E946030862FFE
:101A5000672B39F0089582E0089584E0089588E0C6
:101A6000089581E008958091560780FD14C081FD9E
:101A700014C082FD16C080915507882381F08431FF
:101A800080F422E3829FC001112464E170E00E948F
:101A90006030862F08958CE0089589E1089585E0EF
:101AA000089582E30895803F31F40E94330D8195BB
:101AB00080935E070895813F19F40E94330DF8CF9B
:101AC000823F31F40E94330D819580935D07089524
:101AD000833F19F40E94330DF8CF893F29F40E9407
:101AE000110D80935F0708958A3F21F40E94110D24
:101AF0008195F7CF8B3F31F40E94110D8195809332
:101B0000600708958C3F19F40E94110DF8CF843FAF
:101B100031F480915C07816080935C070895853F74
:101B200021F480915C078260F7CF863F21F4809199
:101B30005C078460F1CF873F21F480915C07886067
:101B4000EBCF883F21F480915C078061E5CF8D3F2A
:101B500031F48091560781608093560708958E3F37
:101B600021F4809156078260F7CF8F3FB9F78091BB
:101B700056078460F1CF80E00895F894E82FE2954D
:101B8000EF70F0E031A1282F2F7081E090E001C0CC
:101B9000880F2A95EAF7982F9095932391A392A105
:101BA000892B82A3789408959091970892FF06C09C
:101BB000282F28712830F9F4877F846093FF06C0AE
:101BC000282F28712831F1F4877E846120919808AC
:101BD00020FF06C0382F38713830D9F4877F8160F4
:101BE00021FF06C0282F28712831D1F4877E81611A
:101BF00094FD877E0895282F24712430F9F68B7F79
:101C00008860DCCF282F2471243101F78B7E886116
:101C1000DDCF382F3171313019F78E7F8860E0CFFA
:101C2000282F2171213121F78E7E8861E1CFCF935A
:101C3000DF93EC0182389105A9F1D8F58133910544
:101C400009F496C048F58932910509F48AC08A974B
:101C500009F495C0C11521E5D20708F0BCC0C11533
:101C600030E5D30708F014C1C83ED10508F09CC088
:101C7000C03ED10560F5C83AD10508F087C0C53A25
:101C8000D10508F0FDC0C130D10509F12097F9F068
:101C9000C430D105E0F440C08533910509F45AC041
:101CA000C997C1F680919708837089F0C0EED0E0A3
:101CB0000EC0833E910599F170F4803E910501F1CB
:101CC000823E910539F68091970882FD21C0CE01B0
:101CD000DF91CF910895863E910561F1873E910590
:101CE00071F1843E910509F0B5CF8091980881FF8C
:101CF000EECF80919708C7EED0E084FD0DC0E7CF0E
:101D00008091970880FD12C19091980890FFDFCFD5
:101D1000C3EED0E084FFDBCFD0E0C0E0D8CF80912D
:101D2000970882FD06C19091980890FDBFCF84FF6F
:101D3000CECFF2CF8091970883FDDDCFC8CF8091C1
:101D4000970883FDF9C09091980891FFF0CFC4EEF9
:101D5000D0E0BDCF8091970885FFB9CFC9E2D0E030
:101D6000B6CF8091970885FFB2CFC5E3D0E0AFCF63
:101D70008091970886FFABCFCAE2D0E0A8CF8091D0
:101D8000970886FFA4CFC1E3D0E0A1CFCF3BD10518
:101D900018F6C85AD0E0CC0FDD1FC15EDE4F0990A7
:101DA000D881C02DD46493CFC11540E2D40758F434
:101DB000C11581E0D80708F08ACFC03FD10508F4EB
:101DC000ABCFD06584CFC11590E4D90708F4A4CF78
:101DD000DF70D06A7CCFC11525E5D20700F5C115AB
:101DE00034E5D30708F08AC0C11543E5D40708F0ED
:101DF00071C0C11582E5D80708F467C0CE018370B1
:101E0000992721E030E002C0220F331F8A95E2F7C4
:101E1000C695C69580E2C89FE001112452C0C11545
:101E200099E5D907A8F4C11528E5D20708F06BC0D9
:101E3000C11536E5D30708F06FCF8C2F0E94D40D63
:101E4000C82FD0E0DC2FCC27CC27DF71D0623FCF6A
:101E5000C1154AE5D40708F45BC0CE019056811540
:101E6000904208F059CF8D2F8F710E94D40D90E0D1
:101E7000982F882788279F719C012C2BE901E6CF9A
:101E8000C55AD0E0C45EDE4FC881D0E0D0641FCF19
:101E9000CE01E4E096958795EA95E1F783702C2FC3
:101EA00026952695237040E2249F90011124382B1B
:101EB0008C2F8370C1E0D0E002C0CC0FDD1F8A956B
:101EC000E2F7C22BD32BDC6802CFDC2FCC27C16F0B
:101ED000D06AFDCECE018370992721E030E002C0A8
:101EE000220F331F8A95E2F7C695C69590E2C99FE7
:101EF000E0011124C22BD32BDA68E9CEDC2FCC27EA
:101F0000C46FD06AE4CEDC2FCC27C06FD06ADFCE9E
:101F10008C2F8F700E94D40D34E0D695C7953A95DA
:101F2000E1F7CF709C2FEC01D069D1CEC9E3D0E0AE
:101F3000CECEC2EED0E0CBCEC6EED0E0C8CE809101
:101F40009B06882331F010929B0610929A061092FD
:101F500099060895809590919806982390939806F5
:101F600008958091980690919706892B90919606F6
:101F7000892B8093120380919B06882329F10E946C
:101F8000D5042091990630919A06821B930B8838CC
:101F9000934110F00E949F0F8091120390919B0635
:101FA000892B8093120380911401882341F1809141
:101FB000970887FF24C08EE1E4E1F3E090E08150D0
:101FC00000F591110E949F0FE0918F08F091900809
:101FD0003097E1F080911401882359F0809197089F
:101FE00087FF07C0809112038093130385E08093DD
:101FF00012030280F381E02D82E193E0099486E0F0
:10200000DBCF21912223D9F29F5FD9CF089510927F
:102010009506109294061092930608958091920668
:102020008111109292060895909114019923D1F094
:102030009091970897FF16C0E82FE695E695E695EC
:10204000EE31E0F4F0E0EE5EFC4F282F277081E0E7
:1020500090E001C0880F2A95EAF780959281892344
:1020600082830895E4E1F3E09191891303C0DF01D5
:1020700011971C9293E0EA31F907B1F70895909116
:1020800014019923C1F09091970897FF14C0E82F8D
:10209000E695E695E695EE31F8F4F0E0EE5EFC4F5D
:1020A000877021E030E001C0220F8A95EAF7828133
:1020B000822B82830895A4E1B3E0EFEF90E02D91AD
:1020C000821751F0EF3F19F4211101C0E92F9F5FF2
:1020D0009630A9F7EF3F09F408950E2E000CFF0B80
:1020E000EE5EFC4FE6CF80919106909160069813CA
:1020F00001C008958F5F8770FACF2FE0929F800D07
:102100001124982F977086958695869523E0829F57
:10211000F0011124EA5CF94F50E040E080E02191A9
:1021200030E0092E02C0369527950A94E2F7217017
:102130003327042E01C0220F0A94EAF7822B4F5F47
:102140005F4F4330510559F708952FE0929F800D5E
:102150001124982F977041E001C0440F9A95EAF737
:1021600086958695869593E0899FF0011124EA5C17
:10217000F94F90E080E070E05191DF0111979B01F1
:10218000082E02C0369527950A94E2F72170219512
:102190002527242325272C9301968330910561F769
:1021A000089590E080E00E94F70490E080E00E94B3
:1021B000E10410929706109296060E94B10F86E0F5
:1021C000EBE5F7E0DF011D928A95E9F710925507DC
:1021D00010925407109256070C94670C8093F908DC
:1021E0000C94D1108091F908982F9670963019F4BC
:1021F00088600C94EE10877FFCCF21E030E001C0B6
:10220000220F8A95EAF720958091F90882230C9491
:10221000EE10909195068095892380939506282F3E
:10222000277039F4282F082E000C330B9217130651
:1022300021F49091980892FF07C085958595859522
:102240000E94FD100C940710089521E030E001C0B9
:10225000220F8A95EAF78091F908822B0C94EE10F0
:102260009091980892FD10C098E0899F90011124E8
:10227000622B609395060E9425110E94D5049093CD
:1022800094068093930608950C94251180939C06E0
:102290000C94D110882321F00E94AA0F0C94B10F46
:1022A0000895882339F090919806982B909398067A
:1022B0000C94B10F0895882309F452C0823871F448
:1022C0000E940D0581FF4CC089E30E943F100E94CF
:1022D000B10F89E30E9414100C94B10F833859F4A4
:1022E0000E940D0580FF3CC083E50E943F100E94C4
:1022F000B10F83E5EFCF843859F40E940D0582FFBA
:102300002FC087E40E943F100E94B10F87E4E2CF04
:102310009CEF980F913AF0F290E2980F983050F4B9
:10232000877091E001C0990F8A95EAF7892F0E9482
:10233000AA0FD2CF9BE5980F933020F490E080E075
:102340000C94F70498E5980F973120F490E080E022
:102350000C94E104803F20F00E948E0C0C94670CDA
:10236000089580FF03C0209A289808952098FCCFF4
:102370009091C208943029F58093990870939B0836
:1023800060939A089093E9008FEF9091E800815054
:1023900095FD06C095ED9A95F1F700008111F5CFF6
:1023A0008091E80085FF0DC050E040E063E070E000
:1023B00089E998E00E947D038091E8008E77809300
:1023C000E8000895BC0184E00C94B811BC0183E0DE
:1023D0000C94B8119C0184E08093E9009FEF8091F8
:1023E000E800915085FD06C085ED8A95F1F7000063
:1023F0009111F5CF8091E80085FF0CC050E040E0DE
:1024000066E070E0C9010E947D038091E8008E774C
:102410008093E8000895CF93DF93EC01809114013D
:102420008823B1F18091970887FF32C060E284E091
:102430008093E9008FEF9091E800815095FD06C0F0
:1024400095ED9A95F1F700008111F5CF8091E800A4
:1024500085FF1BC08091140170E050E040E08111C5
:1024600004C050E040E068E070E0CE010E947D03CF
:102470008091E8008E778093E80080E2FE01A0EA78
:10248000B8E001900D928A95E1F7DF91CF91089520
:1024900068E081E0CDCF81E08093E00080E280932E
:1024A000D8001092C9008FE19EE40197F1F700C0B7
:1024B000000087E090EBDC0180930409909305090C
:1024C000A0930609B093070988E19CE00FB6F89441
:1024D000A895809360000FBE90936000FFCF6E9A26
:1024E0003EB13F7B2EB120644FB7F89481E697E070
:1024F000FC015191CF0168E02EB9000000C057FFE8
:102500003EB9550F000000C000C000C03EB900C079
:102510006A9591F7F8E08D389F0751F74FBF8FE527
:1025200094E00197F1F700C000000895CF93C82F01
:10253000882309F4AEC08238C1F40E940D0581FDE4
:10254000A8C089E30E943F100E94B10F2FEF81EED7
:1025500094E0215080409040E1F700C0000089E302
:102560000E941410CF910C94B10F8338A1F40E94F3
:102570000D0580FD8EC083E50E943F100E94B10FC3
:102580002FEF81EE94E0215080409040E1F700C0B1
:10259000000083E5E5CF8438A1F40E940D0582FD9B
:1025A00078C087E40E943F100E94B10F2FEF81EEA8
:1025B00094E0215080409040E1F700C0000087E4A3
:1025C000CFCF8CEF8C0F813A88F58091140188234E
:1025D00001F18091970887FF1CC0EC2FE695E695E6
:1025E000E695F0E0EE5EFC4F828190E04C2F477064
:1025F00021E030E002C0220F331F4A95E2F7822328
:102600009323892B79F08C2F0E9414100E94B10F14
:1026100009C0E4E1F3E08191C817A9F323E0EA31AE
:10262000F207C9F78C2F0E943F109CCF80E28C0FDD
:10263000883068F4C77021E030E001C0220FCA95ED
:10264000EAF780919806822B809398068BCFEBE572
:10265000EC0FE33040F4F0E0E45EFE4F808190E068
:10266000CF910C94F704E8E5EC0FE73150F4F0E07B
:10267000EE0FFF1FE15EFE4F80819181CF910C94A0
:10268000E104C03F30F08C2F0E94530DCF910C9489
:10269000670CCF9108951F93CF93DF93182FCAE053
:1026A000D0E0893311F4C0E5D0E0812F0E9496126A
:1026B0008FE99FE00197F1F700C000002197C1F773
:1026C000812FDF91CF911F910C945B110F931F937A
:1026D000CF93DF93C62FD42F022FFC018281882352
:1026E000A1F06093FC080E94D5049093FB088093AE
:1026F000FA08C77081E001C0880FCA95EAF7DF9138
:10270000CF911F910F910C9451118091FC08681387
:1027100035C08091FA089091FB080E94BA04883C69
:10272000910560F510E21D0FCD17B9F080E28C0F16
:10273000883040F4C77081E001C0880FCA95EAF77D
:102740000E944A11183048F481E09D2F977001C013
:10275000880F9A95EAF70E945111802F0E944B131F
:10276000183098F4D77081E001C0880FDA95EAF745
:10277000DF91CF911F910F910C944A11C77081E0A6
:1027800001C0880FCA95EAF7F3CFDF91CF911F916F
:102790000F910895AF92BF92CF92DF92EF92FF9286
:1027A0000F931F93CF93DF93EC018AE0A82E28812B
:1027B000222309F48CC02130C9F599818A81913096
:1027C00021F422960E944B1305C0923029F42296E0
:1027D0000E9496122196EBCF933021F422960E940C
:1027E0005B11F8CF943011F02196F4CF229630E0AF
:1027F00020E0AE014F5F5F4F8053990B8A30910507
:1028000050F02150310930F38FE99FE00197F1F743
:1028100000C00000F6CFA29EB001A39E700D11244F
:102820009C01260F371F8981EA01E3CFE22FF0E0F8
:10283000E650FE4FB490822F86958695869590E05F
:10284000FC01E651FE4FE4902770F12C022E02C0ED
:10285000F594E7940A94E2F731E0E322FF24FC01C7
:10286000E652FE4FC490D12C022E02C0D594C794DC
:102870000A94E2F731E0C322DD24FC01E653FE4F67
:10288000049110E002C0159507952A95E2F70170B2
:102890001127E114F10419F081EE0E949612C1147F
:1028A000D10419F086EE0E9496128B2D0E944B13D4
:1028B000CD2819F086EE0E945B11EF2819F081EE09
:1028C0000E945B11012B09F485CF8CE27BCFDF9155
:1028D000CF911F910F91FF90EF90DF90CF90BF901D
:1028E000AF900895CF93DF93C7EFD2E060E0CE01C1
:1028F0000E9421312196C11584E0D807B9F7DF91F4
:10290000CF9108951F93CF93DF93122F8430F8F463
:102910006630E8F44F30D8F4C42FD0E0CC0FDD1F80
:102920009EE1699FC00DD11D112494EB899FC00DBC
:10293000D11D1124632FCE0187960E942131612F72
:10294000CE018896DF91CF911F910C942131DF91B8
:10295000CF911F910895AF92BF92CF92DF92EF92E5
:10296000FF921F93CF93DF938AE7C82E83E0D82E80
:10297000D0E07601C0E014C0F50125913491412FDB
:102980006C2F8D2F0E94821482E0A80EB11C1F5F55
:102990001F3091F78EE1E80EF11CCF5FC63019F0C1
:1029A000570110E0E9CFDF5F84EBC80ED11CD430B3
:1029B00001F7DF91CF911F91FF90EF90DF90CF90C3
:1029C000BF90AF900895CF93C82F6FEF811161E250
:1029D00083E290E00E9421316FEFC11161E184E256
:1029E00090E00E9421316FEFC11168E285E290E032
:1029F000CF910C94213180E00E94E31460E086E2E4
:102A000090E00E9421310E94AB140E94721481E078
:102A10000C94E314CF93C92F682F84E090E00E94B8
:102A200021316C2F82E290E0CF910C942131909172
:102A3000980892FB222720F9281751F080FB92F981
:102A40009093980880919708909198080C940A1593
:102A500008950F931F93CF93DF93843030F5663042
:102A600020F54F3010F5C42FD0E0CC0FDD1F2EE144
:102A7000629FC00DD11D112434EB839FC00DD11D69
:102A80001124CE0187960E940331082F10E0102FE9
:102A90000027CE0188960E9403319801282BC90196
:102AA000DF91CF911F910F91089590E080E0F8CFD2
:102AB000462F843038F4763028F46F3018F4672FBE
:102AC0000C94291590E080E00895CF92DF92FF9258
:102AD0000F931F93CF93DF936C010091F9088091BE
:102AE0009C06082BC7E0D0E010E0FC2EC8010C2E9D
:102AF00002C0959587950A94E2F780FD0CC0219756
:102B0000A0F7F12C8F2DDF91CF911F910F91FF90A6
:102B1000DF90CF900895B6018C2F0E9458150E9427
:102B2000170E019761F3EECFCF93DF93EC010E9474
:102B30006515BE010E945815DF91CF910C94170EB8
:102B4000FC01808191810E949415292F2F7092950C
:102B50009F7092509E3078F4E92FF0E0E655FE4CDD
:102B60000C947430803F19F020F4883E20F481E00A
:102B70000895843FE1F380E00895883EC0F3813FEB
:102B8000D1F7F5CF822F869586958695089583E2B5
:102B900090E00E940331813289F484E290E00E9447
:102BA0000331813159F485E290E00E94033191E0D4
:102BB000883209F090E0892F8170089580E0FCCF81
:102BC000CF9384E090E00E940331C82F82E290E02E
:102BD0000E940331982F8C2FCF9108951F93CF938C
:102BE000DF93EC01FC01E555FD4F80816823C9F0BE
:102BF0000E94CD30182F0E94CD308F77782F20E89B
:102C0000720F08F47FEF612F809101090E9407097C
:102C1000462F282F672FCE01DF91CF911F910C9463
:102C2000A305DF91CF911F910895DF92EF92FF925C
:102C30000F931F93CF93DF938C01FC01E555FD4F5C
:102C40008081682381F1D0900009D0910109C09161
:102C5000FF08EC2EF12C0E94CD30282FC7018C5498
:102C60009F4F68E671E00E9460308E199F0997FDC2
:102C70000396959587959595879523706C2F289F3A
:102C8000600D11247D2D8D2F0E940709462F282FBE
:102C9000672FC801DF91CF911F910F91FF90EF90A7
:102CA000DF900C94A305DF91CF911F910F91FF90BE
:102CB000EF90DF900895EEEFF8E085E38083809158
:102CC000190190911A01A0911B0181839283A38322
:102CD0008FE784838FEF858346E050E06CE170E0FE
:102CE000CF010C9411311092980680911401E4E107
:102CF000F3E0882359F08091970887FF07C08EE1A1
:102D0000DF011D928A95E9F70C94D11086E0F8CF87
:102D10001F93CF93DF93CDB7DEB7AA970FB6F89482
:102D2000DEBF0FBECDBF84EC98E02091F100DC0146
:102D30002D93CD01B8E08C3C9B07B9F78091C50875
:102D4000833009F471C0B8F4813009F448C082308E
:102D500009F4B2C08091E80083FF3AC18091C408B1
:102D60009091C5089A3008F033C1E92FF0E0E8549B
:102D7000FE4C0C9474308A3009F48DC08B3009F409
:102D800070C0893039F78091C408813219F7809179
:102D9000C8089091C908009711F00297D9F6809160
:102DA000E800877F8093E8008091E80082FF37C0C9
:102DB0009091F3008091F200029729F48091F10044
:102DC0008B7F813021F48091F10080939F08809166
:102DD000E8008B778093E8000E94A703BBCF809127
:102DE000C408813A09F0B6CF8091E800877F8093CC
:102DF000E8008091C8089091C908892B61F460E2CD
:102E000080EA98E070E00E9459048091E8008B7796
:102E10008093E8009FCF60E090E080E0F3CF809166
:102E2000C2088111C1CF96CF8091C408813A09F0C0
:102E300091CF8091C8089091C908892B09F08ACF59
:102E40008091E800877F8093E8008091E80080FF10
:102E5000FCCF809114018093F1008091E8008E777F
:102E6000B9CF8091C408813209F074CF8091C8082D
:102E70009091C908892B09F06DCF8091E800877F78
:102E80008093E8000E94A7038091C60880931401F4
:102E90000E9473165FCF8091C408813209F05ACF27
:102EA0008091E800877F8093E8000E94A7038091CB
:102EB000C70880939E084ECF8091C408813A09F0DC
:102EC00049CF8091E800877F8093E8008091E800F7
:102ED00080FFFCCF80919E08BECF803899F0823869
:102EE00009F076C08091C8088F70873008F070C0F4
:102EF0008093E9008091EB0085FB882780F9109290
:102F0000E90006C08091C0089091C10891118260CB
:102F10009091E800977F9093E8008093F1001092E1
:102F2000F1008091E8008E77B5C1882309F4A2C131
:102F3000823009F04DC08091C6088111A6C18091F0
:102F4000C8088F702FEF280F263008F041C08093FB
:102F5000E9002091EB0020FF98C1933031F480917B
:102F6000EB0080628093EB0090C19091EB00906148
:102F70009093EB0021E030E001C0220F8A95EAF740
:102F80002093EA001092EA008091EB008860EACF7B
:102F900081111EC01091C6081F778091E3008078D0
:102FA000812B8093E3008091E800877F8093E80085
:102FB0000E94A7038091E80080FFFCCF8091E3008E
:102FC00080688093E30082E0111183E08093C2085F
:102FD0008091E80083FF0AC08091E800877F80939A
:102FE000E8008091EB0080628093EB00AA960FB618
:102FF000F894DEBF0FBECDBFDF91CF911F91089532
:103000008058823028F72091C6083091C7082C3D9F
:10301000E3E03E07A1F583E08A838AE289834FB724
:10302000F894DE01139620E03EE051E2E32FF0E059
:1030300050935700E49120FF03C0E295EF703F5F8B
:10304000EF708E2F90E0EA30C0F0C7968D939D937D
:103050002F5F243159F74FBF8091E800877F80931D
:10306000E8006AE270E0CE0101960E945904809166
:10307000E8008B778093E800ABCFC096E7CF8091D4
:10308000C8089091C908432F55274330510509F4CA
:103090004AC078F54130510509F47AC08BE590E0DB
:1030A000E2EEF4E04230510509F092CF2091E800C1
:1030B000277F2093E8002091CA083091CB0882171F
:1030C000930708F49C0140E02115310509F065C023
:1030D000411163C08091E80082FDC9CF8091C20890
:1030E000882329F2853019F28091E80083FFF2CF1E
:1030F000BECF4132510509F43CC04232510509F0BE
:1031000067CF8330910508F063CFFC01EE0FFF1FFE
:10311000E358FE4F0190F081E02D86589E4FDC0170
:103120008C9190E01AC0332721303105D1F0211560
:10313000310561F02230310509F04ACFEFE4F5E0C6
:10314000E4918E2F90E0EFE4F5E007C0E3E7F5E0CF
:10315000E4918E2F90E0E3E7F5E0009709F438CF93
:10316000A5CFEFE5F5E0E4918E2F90E0EFE5F5E0F7
:10317000F4CF8330910508F02BCF880F991FFC0105
:10318000ED57FE4F0190F081E02D89E090E08ECF69
:1031900082E190E0EDE3F5E089CF8091C2088823D9
:1031A00009F465CF853009F462CF8091E80083FD92
:1031B0005ECF8091E80082FD8DCF8091E80080FF96
:1031C00083CF9091F3008091F2002115310519F021
:1031D0008830910550F041E0089709F040E0809177
:1031E000E8008E778093E8006FCF44914093F10020
:1031F0003196215031090196E8CF803809F0E8CEA8
:103200008091E800877F8093E8008091C3088093D5
:10321000F10087CE8111DCCE1091C608123008F083
:10322000D7CE8091E800877F8093E8001093C30891
:103230000E94A703112311F084E005C08091E300F0
:1032400087FDFACF81E08093C20842E061EC81E023
:103250000E94C60342E261EC84E00E94C60342E29F
:1032600061EC82E00E94C60342E260EC83E00E94CF
:10327000C603AECE8091C608813009F0A9CE81E0A8
:10328000933009F080E08093C1081092E9008091AA
:10329000E800877F8093E8000E94A70399CE6F9291
:1032A0007F928F929F92AF92BF92CF92DF92EF92D6
:1032B000FF920F931F93CF93DF93CDB7DEB72C9779
:1032C0000FB6F894DEBF0FBECDBF8E010F5F1F4F4C
:1032D0008CE0F80111928A95E9F78DE4E82E81E0FF
:1032E000F82E680193E5692E91E0792E8824839465
:1032F000912CF70181917F018F3F09F44BC0F89425
:10330000E82FE295EF70F0E021A18F70A40102C0D8
:10331000440F551F8A95E2F7CA01922F982B91A36B
:1033200092A18095892382A3789400C0E3E5F1E01F
:1033300030E020E0B12CA12C81918F3F09F48CC0AA
:10334000A82FA295AF70B0E090964C9150E08F708E
:1033500002C0559547958A95E2F740FD7DC0C401AE
:10336000022E02C0880F991F0A94E2F7A82AB92AF0
:103370002F5F3F4F2F303105F9F6F70131978081EC
:103380008F3F11F00E94BD0D50EA5A95F1F7F601FA
:10339000B182A082F2E0CF0ED11C6E147F0409F03E
:1033A000A8CF4CE050E0B80180EA96E00E94DD3002
:1033B000FF24F394009709F4F12C892B09F44FC0F2
:1033C0008CE0F801A0EAB6E001900D928A95E1F751
:1033D00081E080939F060E94D50490939E0680937F
:1033E0009D0680919D0690919E060E94BA040597C5
:1033F000D0F18091A0069091A10690934907809307
:1034000048078091A2069091A30690934B07809362
:103410004A078091A4069091A50690934D0780934A
:103420004C078091A6069091A70690934F07809332
:103430004E078091A8069091A9069093510780931A
:1034400050078091AA069091AB0690935307809302
:10345000520710929F0607C090E080E087CF8091CE
:103460009F068111BECF8F2D2C960FB6F894DEBF2C
:103470000FBECDBFDF91CF911F910F91FF90EF90C5
:10348000DF90CF90BF90AF909F908F907F906F9084
:10349000089590E080E00E940B318A3E9E4F11F427
:1034A0000C94C71580E008956AEE7EEF90E080E00E
:1034B0000E943F3160E082E090E00E94213160E0B4
:1034C00083E090E00E94213110929C0660E084E04D
:1034D00090E00E94213160E082E290E00E94213180
:1034E00060E085E090E00E94213160E086E090E0BD
:1034F0000E9421316FEF87E090E00E94213140E08F
:1035000050E0BA0188E090E00E94333160E08DE045
:1035100090E00E94213140E050E0BA0188E190E063
:103520000E94333160E087E190E00E94213140E069
:1035300050E0BA018CE190E00E94333170E060E02D
:1035400080E290E00E943F3140E050E0BA0188E123
:1035500090E00E94333180E00E94E3140E94FB144B
:1035600040E050E0BA018FE090E00E94333140E04B
:1035700050E0BA0183E190E00C9433318F929F9236
:10358000AF92BF92CF92DF92EF92FF920F931F9371
:10359000CF93DF9300D000D00F92CDB7DEB77C0180
:1035A000FC0183819481892B31F080819181892371
:1035B0008F3F09F0B8C50F900F900F900F900F90AC
:1035C000DF91CF911F910F91FF90EF90DF90CF90FF
:1035D000BF90AF909F908F9008950E946515182F0F
:1035E000682F89819A810E94A51069817A81812F33
:1035F0000E9458158C0180913406F7019281811147
:10360000C3C091110CC00430FDE51F0709F494C03C
:1036100008F055C003303DE5130709F471C0F70108
:103620008281882309F474C5980122513F452031D5
:10363000310508F046C58FEF93E00E9403314EEE4E
:10364000D42ED00E07EF12E0811168C0D11024C132
:1036500019821A821B821C82CC24CA9448012FEF43
:10366000821A920AC8010E94033189831A82882330
:1036700009F454C0813009F045C1580132E0A30E6D
:10368000B11CC4010E940331982E8A83882309F457
:1036900045C0C5010E940331D82E8FEF890D8330BC
:1036A00008F008C1580143E0A40EB11CDB82DD2004
:1036B00021F0CE0101960E94CA138501CFCF0630BA
:1036C0004DE5140709F445C007305DE5150709F01D
:1036D000A6CFA0900401B0900501D090F9080E94F7
:1036E000731680E00E94EE100CE216E0A016B10600
:1036F00009F43FC0C8010E94BE1A06501109F6CF56
:103700000E94731680E00E94EE1082E393E0909393
:1037100033068093320681E08093340680919506CB
:10372000877009F448CFF7018281882309F443CFD9
:1037300082E00E9409113FCF0E94731680E00E9430
:10374000EE108CE296E0909333068093320682E08E
:10375000E3CFA0900601B0900701D090F9080E9435
:10376000731680E00E94EE1002E313E0A016B1068B
:1037700029F40E947316D092F908D0CFC8010E9494
:10378000BE1A0A5F1F4FF2CF980123503D452330E8
:103790003105B8F521E005301D4509F420E0291771
:1037A00009F4BCCF813029F08230B9F01092340690
:1037B000B5CF8091320690913306F3E082339F07B4
:1037C00029F0FC0136972281211105C09093070151
:1037D00080930601EBCFCF01F0CF8091320690911C
:1037E000330626E08C32920729F0FC0136962281BE
:1037F000211105C09093050180930401D7CFCF011B
:10380000F0CF813021F1823009F009CF20910601FB
:1038100030910701A0913206B0913306911105C095
:1038200056E0AC32B50709F4FACECD01069628175A
:10383000390709F4F4CE86E0F70101900D928A95DC
:10384000E1F78091320690913306069720C02091CF
:10385000040130910501A0913206B0913306911117
:1038600005C043E0A233B40709F4D9CECD010697D1
:103870002817390709F4D3CE86E0F70101900D929D
:103880008A95E1F7809132069091330606969093DF
:10389000330680933206C3CE0115F4E01F0709F406
:1038A0003DCFC8010E940331811101C0DA940F5F3E
:1038B0001F4FCCCE54E0951200CF580184E0A80EE3
:1038C000B11CC80103960E940331DD2009F426CF04
:1038D000882309F423CF8150990BC89E9001C99E7B
:1038E000300D1124ED2DE150FF0BCF01820F931FFE
:1038F000019708F4E2CEEFE9FFE03197F1F700C05D
:103900000000F6CFCE0101960E94CA135401D5CE15
:1039100081E00E94251103C081E00E94FD100E94F9
:10392000F210FCCE82E0F5CF053FECE51E0709F46E
:1039300056C008F450C0063F2CE5120709F453C0E6
:10394000882309F401C41092FC0802303CE51307F7
:1039500008F429C106314CE5140730F0C8018A5F2C
:103960009C45099708F01FC10E94E01590939808A4
:103970008093970800315CE5150709F4E3C008F06F
:1039800071C008309CE5190709F4D2C008F040C0A6
:103990000430FCE51F0709F4BFC060F502303CE5C8
:1039A000130709F4B3C080919708826003301C4567
:1039B00009F4AFC080919708909198080E940A1569
:1039C0000E947316ABCE27E245EE65EE9DC326E25C
:1039D00041EE60EE99C327E245EE64EE95C326E220
:1039E00041EE62EE91C327E245EE66EE8DC328E21A
:1039F00041E0EBCF80919708806106305CE51507C8
:103A000009F487C008F48CC080919708806281C057
:103A1000809197088D7F0C309CE5190709F479C0D7
:103A200070F4809197088C600A30FCE51F0709F458
:103A300070C008F481C0809197088E7F6AC0809121
:103A40009708877F0E303CE5130709F462C0809128
:103A500097088B7F0F301C4508F45BC08091970856
:103A60008F7E57C00B3F5CE5150709F45DC030F54C
:103A700003319CE5190709F46DC078F40131FCE5C8
:103A80001F0709F463C002311C4509F093CF0E945F
:103A90007316809197088F773CC005313CE513077A
:103AA00009F460C008F474C08091980881600A3FEE
:103AB0001C4509F07FCF809398087CCF0F3F8CE5A1
:103AC000180709F44BC088F4809198088D7F0D3F4A
:103AD000ECE51E0781F3809198088E7F0E3F1C4510
:103AE00050F3809198088360E6CF01302DE51207EE
:103AF00009F457C008F442C060E002301D4509F0E7
:103B000059CF8EE090E00E94213154CF80919708E8
:103B10008160809397084ECF809197088460F9CF99
:103B2000809197088860F5CF809198088260C3CF14
:103B3000809197088064EDCF0E947316809197085A
:103B40008068E7CF809197088F7DE3CF80919708B9
:103B50008F7BDFCF80919708837FDBCF80919808A0
:103B60008C7FA9CF8091970882FB992790F921E05B
:103B7000922790FB82F990FB83F9CBCF8091980834
:103B8000982F909591708E7F892B90FB81F993CF20
:103B90000E94731690919708892F97FB87F9805898
:103BA000B8CF61E0AECF8091980606315CE515078D
:103BB00009F0D5C28A7A91E009F490E09093350635
:103BC000811106C089E20E943F100E94B10FA6CD6C
:103BD00085E3F9CF85E3C0C28091FE0891E0892793
:103BE0008093FE08109218019093FD0897CD4EE83F
:103BF00055E067E975E00E94190590CD47E955E069
:103C00006EE875E0F8CF4CE755E065E875E0F3CF76
:103C100045E855E06CE775E0EECF44E655E060E737
:103C200075E0E9CF40E755E064E675E0E4CF48E5AC
:103C300055E06CE475E0DFCF44E355E060E475E007
:103C4000DACF40E455E064E375E0D5CF81E00E942F
:103C5000050364CD8DE0FBCF0B352DE5120701F197
:103C60000C351D4509F0A6C28091980882FB882773
:103C700080F991E089270E9417159CC20E94731653
:103C80004FEF54E38CE0415050408040E1F700C0DA
:103C900000000E944B120E94541A40CD81E0EBCFED
:103CA00080E0E9CFC8010E947D10D82E92C2212F5A
:103CB0002F70D22E107F19F0D29490EFD922BB2012
:103CC000C9F0DD2069F080E2800F883010F08110AB
:103CD0000BC080919806D82AD09298060E94B10F06
:103CE000802F0E94961215C080919706D82AD092F4
:103CF0009706F4CF802F0E945B11DD2051F0005E0B
:103D0000083010F0811027C08D2D0E94AA0F0E944C
:103D1000B10FE92DE850FF0B349720F40E940D05F8
:103D20000E94B111AA2009F446CC8091950680FD2D
:103D300042CCF70112828595859585950E942511C3
:103D4000C7010E94BE1A8091950685958595859537
:103D50000E94FD1030CCD09480919706D822D0924A
:103D60009706D5CF312F3F70D32E107F103219F028
:103D7000D29480EFD822882081F041E0841609F4A3
:103D800050C0BB2009F459C0CC2079F1F7018581DE
:103D900080FFA6CF8F70858328C0BB2051F1C11052
:103DA00004C080919B068D2921C051E0C51213C02B
:103DB0008091980882FDADCF80919B06D82AD816B5
:103DC00009F4A7CF0E94D50490939A068093990690
:103DD000D0929B069ECF85E0C812E3CF0E949F0F32
:103DE00080919206D812D09292068D2D0E94511188
:103DF00090CFC11006C00E949F0F8D2D0E944A11C6
:103E000088CF91E0C91208C0809198068D2109F4ED
:103E100080CF0E940E10EFCFE5E0CE1609F479CFE7
:103E2000EACFBB2029F0F5E0FC1508F472CFDDCF16
:103E300024E02C1508F46DCFE0CFCC20F1F2F9E3AB
:103E40008F1237C12FEF37EE43E021503040404012
:103E5000E1F700C00000802F0E945B115ACF812F34
:103E600086958695837061F0813009F052CFC80144
:103E70009370B11002C090E080E00E94E10449CF4D
:103E8000C8019370B11002C090E080E00E94F70476
:103E900040CF802FBB2039F00E94530D0E94670C49
:103EA0000E94670C36CF0E948E0CFACF812F837050
:103EB00089F5B1102ECF402F429546954770440F9B
:103EC000440F802F8F70042E01C0880F0A94EAF7E8
:103ED000202F207104FF07C02FE030E001C0220F27
:103EE0004A95EAF72095169516951370123069F0E9
:103EF00050F430919C06113029F0822B83230E94CC
:103F0000461107CF832B822BFACF282B80919C065A
:103F10008227F5CF8695BB2011F0812F81708823F1
:103F200009F4F7CE402F429546954770440F440F51
:103F3000802F8F70042E01C0880F0A94EAF7202F7B
:103F4000207104FF07C02FE030E001C0220F4A9526
:103F5000EAF72095169516951370123069F050F413
:103F60003091F908113029F0822B83230E94EE1042
:103F7000D0CE832B822BFACF282B8091F908822771
:103F8000F5CF1F70BB2029F0812F0E942511802FB3
:103F90002DCF802F0E944A11812F0E94FD10B9CE93
:103FA000802F92EF891609F448C0981570F0E0EF61
:103FB0008E1629F1F1EF8F16C1F1BB2009F46DC007
:103FC000C1108ECE812F8F7135C023EF8216D1F1B3
:103FD00034EF8312F2CF80919206BB2009F449C0DE
:103FE0000E94AA0F8091950687708430B1F50E94D7
:103FF0000710812F8F710E94FD10A12C8ACEBB204B
:1040000079F044E04C1508F484CE1F7181E090E013
:1040100001C0880F1A95EAF79091F9088927A6CF71
:1040200055E05C1508F475CEF0CF812F8F71BB2061
:1040300009F4B3CF0E9425116CCE812F8F71BB2064
:10404000C9F3ABCF80E0BB2009F490CF1F7181E0B2
:1040500001C0880F1A95EAF789CF84E08C1568F2C1
:104060001F71812F0E94251163E0812F0E94301162
:10407000C4CF90919806982B9093980694E09C1545
:1040800040F40E9407100E940E1064E0812F8F718F
:10409000EDCF81E00E940911B0CFCC2079F08933B7
:1040A00041F4EFEFF7EE23E0E150F0402040E1F77C
:1040B000D0CE8FE39CE90197F1F7CBCE812F8F71A2
:1040C0006CCF0031FFE51F0709F422CC01312FE549
:1040D000120709F427CC033F2CE5120709F477CC2B
:1040E00008F022CC083D4CE5140709F46CCC093DDE
:1040F0005CE5150709F47BCC073D9CE5190709F041
:104100001FCC26E241EE61EEC7010E94661306CB8A
:1041100000313FE5130709F4FFCB01314FE51407E8
:10412000D1F682E0FACB85E0DE01119601900D9286
:104130008A95E1F7F701228189819A8121114DCA7F
:104140000E947D10182F51CA06311C4599F58091A7
:10415000350681113FCD89E20E94141036CD82725E
:104160000A3C2CE5120709F462CD08F07DC0053C3D
:104170004CE5140709F447CD08F060C0033C9CE50A
:10418000190709F434CD08F039CD023CFCE51F07CE
:1041900009F422CD0A358DE5180709F47FCD08F022
:1041A0005BCD0115ECE51E0709F468CD0E3D1C45FD
:1041B00009F471CDF701828100811181882309F40E
:1041C00071CDC8010E946515D82E682FC8010E94C4
:1041D000A510B8018D2D0E9458150E94170E8C0154
:1041E000882EF701B280C580C2943FE0C32280913F
:1041F00095068770A1F0AB2CBB2091F0812F807FBA
:10420000803421F080E2800F883048F082E00E9404
:104210000911809195068770AA24A3948111A12C7D
:10422000912E92942FE09222FBE0F91508F471CDC3
:10423000E92DF0E0EE53FE4C0C947430073C2CE575
:10424000120709F4EACC08F4E3CC083C4CE5140767
:1042500009F4E8CC093C5CE5150709F09BCF4CE478
:1042600055E068E575E0C7CC0F3C9CE5190709F4FB
:10427000F1CC98F40C3CFCE51F0709F4E2CC08F4FF
:10428000DBCC0D3C3CE5130709F4E0CC85E00E3CAB
:104290004CE5140709F4DBCC7DCF063D5CE5150742
:1042A00030F4013D1C4508F039CA82E1D0CC0D350F
:1042B000100709F433CA6ECF1F93CF93DF93809119
:1042C0005F06807FA9F480915C06882389F0809145
:1042D0009106D091600660915A0670915B06A0919C
:1042E0005D06B0915E06C62FC72316E0D81304C042
:1042F000DF91CF911F91089590E0109711F0CF3F7B
:1043000019F401968770F2CF189F9001199F300D14
:104310001124F901EF59F94F41814713F2CF408140
:104320004613EFCF42814111ECCF438154814A1BA8
:104330005B0B483C510528F780915F068F708061C8
:1043400080935F06F901EA59F94F80818F7080618F
:1043500080838AE596E00E94BE1ADF91CF911F917B
:104360000C947310AF92BF92CF92DF92EF92FF92B4
:104370000F931F93CF93DF93CDB7DEB761970FB63F
:10438000F894DEBF0FBECDBF8C0185E0F801DE01E1
:104390001D9601900D928A95E1F7F801E2808AE579
:1043A000A82E86E0B82E60915D0670915E066115BC
:1043B000710509F432C190915A0640915B06892F2C
:1043C00084238F3F09F429C120813181C380D480A7
:1043D000F0905C06F601E61BF70BFF2009F4E8C03D
:1043E00080915F06582F507FE83CF10508F0ABC084
:1043F000511177C0FE2C431321C092131FC0E1104E
:104400001DC08F70806180935F06C5010E94BE1A37
:1044100080915F06F80185838F2D61960FB6F89421
:10442000DEBF0FBECDBFDF91CF911F910F91FF90E7
:10443000EF90DF90CF90BF90AF900895CD2829F0F6
:10444000822F83238F3F09F003C180E0F82FF170A2
:10445000DF2E80FF3CC0809191064091600656E0BF
:10446000841315C02D873E878D859E850E949415E7
:10447000292F22952F702230F0F0243018F59F70EC
:10448000F1F0F8019581907FD1F4D12C1EC090E01D
:10449000589FF001599FF00D1124EF59F94F618198
:1044A000361306C06081261303C06281E6120FC076
:1044B00001968770D5CF9F7011F0882331F3805E0D
:1044C000883018F3C8010E94BE1AFD2CA5CFEE203B
:1044D00009F4A2CF80915F06816080935F06F12C82
:1044E0009BCF431306C0921304C0F801EE2009F4D9
:1044F00079C0C8010E94A015882309F1EE20F9F0C7
:1045000080915F06803270F020915A0630915B06F0
:1045100038872F831986DB86CA868C87CE0107965B
:104520000E94BE1A86E0F801AAE5B6E001900D925D
:104530008A95E1F70E945C21FF24F3946DCFC801B6
:104540000E94BE1AF9CF51110AC08AE596E00E9476
:10455000BE1A86E0F50111928A95E9F7C0CF4313A0
:104560000FC092130DC0E1100BC0F8018583C80184
:104570000E94BE1A86E0F50111928A95E9F74CCFA8
:10458000C8010E94A0158823D1F2EE20C1F28091CB
:104590005F06803238F220915A0630915B063A83EA
:1045A00029831B82DD82CC828E83CE010196B8CF17
:1045B000E83CF105F8F6FE2CEE2009F243131FC08B
:1045C00092131DC080915F0680FD10C0982F907FD0
:1045D00069F0F8018583903F31F0982F907F905FCC
:1045E0008F70892B8583C8010E94BE1A86E0F8016E
:1045F000AAE5B6E001900D928A95E1F70DCFC801CA
:104600000E94A01581118ECF80915F0681608093FA
:104610005F06C8010E94BE1AFFCEEE2009F48FCFBC
:10462000C8010E94A015F82E882309F488CF86E0DF
:10463000F801AAE5B6E001900D928A95E1F7809124
:104640005A0690915B060E9494150E945C21E4CE6C
:1046500081E08E25FBCE1F93CF93DF93CDB7DEB7DE
:1046600067970FB6F894DEBF0FBECDBF4B8B5C8B48
:104670006D8B7E8B8F8B6111109297061A8A198A27
:1046800085E0FE017396DE011D9601900D928A95DC
:10469000E1F70E94D5042091930630919406821B85
:1046A000930B8838934120F08091950682FF7FC05C
:1046B0000E94D5042091990630919A06821B930B93
:1046C0008838934110F00E949F0F86E0FE013D96CE
:1046D000DE01179601900D928A95E1F7CE010796BB
:1046E0000E94B221882389F016E080919106909172
:1046F0006006891349C067960FB6F894DEBF0FBEF7
:10470000CDBFDF91CF911F91089586E0FE013796CE
:10471000DE01119601900D928A95E1F78A859B85BD
:10472000892B11F38F81988589238F3FE9F220919E
:10473000600630E0C9010196877099274091910683
:104740004817190671F40E947316109260061092B1
:10475000910686E0EAE5F6E0DF011D928A95E9F729
:10476000C3CF96E0929FD001939FB00D1124AF5913
:10477000B94FFE01319601900D929A95E1F7809321
:1047800060060E947310B0CF819FC00111248F5921
:10479000994F0E94B221882309F4ADCF80919106F0
:1047A00090E0019687709927809391069ECF82E0D2
:1047B0000E9409117DCF1F920F920FB60F92112404
:1047C0002F933F934F935F936F937F938F939F9319
:1047D000AF93BF93CF93DF93EF93FF93D091E90013
:1047E000DF708091EC00C82FC17080FDC0E810928E
:1047F000E9008091F000877F8093F00078940E9418
:1048000088161092E9008091F00088608093F00093
:10481000CD2BCF70C093E900FF91EF91DF91CF9145
:10482000BF91AF919F918F917F916F915F914F91C8
:104830003F912F910F900FBE0F901F9018951F92D0
:104840000F920FB60F9211242F933F934F935F93C4
:104850006F937F938F939F93AF93BF93EF93FF9348
:104860008091E10082FF09C08091E20082FF05C0D3
:104870008091E1008B7F8093E1008091DA0080FFDE
:1048800024C08091D80080FF20C08091DA008E7F04
:104890008093DA008091D90080FFA3C080E189BDB8
:1048A00082E189BD09B400FEFDCF81E08093C2089A
:1048B00080919C08811109C00E942D030E94F80379
:1048C0008091E20084608093E2008091E10080FFAB
:1048D00017C08091E20080FF13C08091E2008E7FBC
:1048E0008093E2008091E20080618093E2008091F9
:1048F000D80080628093D80019BC85E08093C208FC
:104900008091E10084FF31C08091E20084FF2DC0DE
:1049100080E189BD82E189BD89B5982F917080FFC2
:10492000FBCF8091D8008F7D8093D8008091E100EB
:104930008F7E8093E1008091E2008F7E8093E20081
:104940008091E20081608093E2008091C308882317
:1049500009F44DC084E08093C2080E9473160E943F
:104960000D050E94B11110929D088091E10083FF16
:1049700027C08091E20083FF23C08091E100877F00
:104980008093E10082E08093C2081092C308809176
:10499000E1008E7F8093E1008091E2008E7F809322
:1049A000E2008091E20080618093E20042E060E0FA
:1049B00080E00E94C6038091F00088608093F00040
:1049C000FF91EF91BF91AF919F918F917F916F91E7
:1049D0005F914F913F912F910F900FBE0F901F90BD
:1049E000189519BC1092C20810929C086ECF809145
:1049F000E30087FD93E09093C208AFCF78941F92B5
:104A00001FB61F9211248F939F93AF93BF938091F2
:104A1000930890919408A0919508B09196080196FA
:104A2000A11DB11D8093930890939408A0939508BD
:104A3000B0939608BF91AF919F918F911F901FBE29
:104A40001F9018951F921FB61F9211248F939F934A
:104A5000AF93BF938091930890919408A09195088B
:104A6000B09196084196A11DB11D80939308909333
:104A70009408A0939508B0939608BF91AF919F9129
:104A80008F911F901FBE1F901895CDB7DEB7C655EA
:104A9000D1090FB6F894DEBF0FBECDBF84B7877FB4
:104AA00084BF0FB6F894A8958091600088618093C8
:104AB0006000109260000FBE80E890E00FB6F8949E
:104AC00080936100909361000FBE85B7806885BFB9
:104AD00085B7806885BF8BEB9DE090931103809331
:104AE00010030E942D030E94F8038091E20084606D
:104AF0008093E20078948091C2088823A1F01091FD
:104B0000E9001F709091EC00892F817090FD80E882
:104B1000182B1092E9008091E80083FD0E9488160E
:104B20001F701093E90082E084BD93E095BD9AEF79
:104B300097BD80936E000E94C715811102C00E942C
:104B4000FB140DE411E0D8018D918D018F3F11F020
:104B50000E94BD0DB1E003351B07A9F703E511E085
:104B600082E6E82E81E0F82EF80181918F018F3FD7
:104B700011F00E94BD0DE016F106B1F7E0EAF6E093
:104B8000A8E4B7E0119211921D921D9226E0EC3A32
:104B9000F207C1F70E94491A811102C00E94541AFB
:104BA00082E090E00E94033180933B070E94E01571
:104BB00090939808809397080E944F198FE39CE97F
:104BC0000197F1F700C000000E944F19809148073B
:104BD00080FF08C06FEF7FEF90E080E00E943F31E0
:104BE0000E944B1283E090E00E9403310E94461124
:104BF0001092D0088FEF9FEF9093EA088093E90816
:104C00009093EC088093EB089093EE088093ED0866
:104C10009093F0088093EF089093F2088093F10846
:104C20009093F4088093F3089093F6088093F50826
:104C30009093F8088093F7081092AC069093C606FC
:104C40008093C5069093C8068093C7069093CA06C2
:104C50008093C9069093CC068093CB069093CE06A2
:104C60008093CD069093D0068093CF069093D20682
:104C70008093D1069093D4068093D3060E94491A5C
:104C8000811104C00E94541A0E945B1646E050E055
:104C90006CE170E08EEF98E00E94F3308091FE08A6
:104CA0008C7F11F40E945B162198299A22982A9AE7
:104CB00083B1869581701A991CC190E0892B8093ED
:104CC00039078091970880688093970880919708AA
:104CD000909198080E940A1588E091E090939008BE
:104CE00080938F08222423940E944F1981110E94DF
:104CF000C904ACE3B7E02196BFAFAEAF2197EDEDAD
:104D0000F6E02496FFAFEEAF249728E437E02E9626
:104D10003FAF2EAF2E97512C412C22961FAE2297DB
:104D200027964FAE27972F964FAE2F972E96AEAD64
:104D3000BFAD2E97ED91FD912E96BFAFAEAF2E97E2
:104D40002996FFAFEEAF29972196AEADBFAD219763
:104D50008D919C918E179F0709F489C1E827F92747
:104D60006196FFAFEEAF619733243A94340CBFE005
:104D70003B9EC0011124FC01E352F94F3F012496F0
:104D8000CEACDFAC2497FFE0CF0ED11C24962EAD25
:104D90003FAD24972D5D364026963FAF2EAF269728
:104DA00010E088248394912C63967FAE6EAE639757
:104DB00092012F5F3F4FB29FC001B39F900D11240E
:104DC000AC014352594F65965FAF4EAF6597B49DA6
:104DD000C001B59D900D1124DC01A352B94F679617
:104DE000BFAFAEAF679761968EAD9FAD61978821DB
:104DF0009921892B09F425C11DAB2F96BFAD2F97A3
:104E0000BEAB2996EEACFFAC2997E820F92081E0F3
:104E1000E114F10409F480E08FAB0E94D5048160B5
:104E2000782F99AF88AF4DA95EA96FA989AD0E946F
:104E30002B232196EEADFFAD2197808191818825AE
:104E4000992591838083EF2851F02696EEADFFAD32
:104E50002697E757FE4F80818F3F09F04CC000E056
:104E6000E02EF12C8091AC068E0D9F2D911D09979F
:104E70006CF1F8E0AF2EB12CAE18BF08B701635546
:104E8000794FA5018DEA96E00E94EA30B7016B5494
:104E9000794FA50185EB96E00E94EA30A501440F09
:104EA000551FB701660F771F6B53794F85EC96E05E
:104EB0000E94EA30B7016354794FA5018DEB96E06B
:104EC0000E94EA3088E0801B8093AC068091AC069B
:104ED00090E02A96EFAD2A97AE2FB0E09D01220F09
:104EE000331F2D513E4FAA0FBB1FBD016C517E4F8A
:104EF0001EC092E0E3CE2A968FAF2A9701E0B0CF92
:104F000090E0FC01E455F94FD9015C915183DB013C
:104F10005C9151872A96BFAD2A97B18B880F991F54
:104F2000FC01E455F94F128E118E91E0842F41E07F
:104F3000480F901728F38093AC068091FE088C7F71
:104F4000803709F074C08FEF810F811760F4679686
:104F5000EEADFFAD6797E80FF11D208130E1230F23
:104F600008F42FEF20832696EEADFFAD2697E3528F
:104F7000F94F208140E2240F08F42FEF208391E0C5
:104F8000910F9F3011F40C944330218150E1250F93
:104F900008F42FEF21832796AFAD2797A53039F17D
:104FA000811760F46596EEADFFAD6597E80FF11DD2
:104FB00020813DE0230F08F42FEF2083D6012C91B0
:104FC00030E1230F08F42FEF2C939F3011F40C9451
:104FD0003A3011962C9111973DE0230F08F42FEFF2
:104FE00011962C932796BFAD27973B1600F5811796
:104FF00060F46396EEADFFAD6397E80FF11D20817D
:105000003DE0230F08F42FEF2083D3012C9130E1F2
:10501000230F08F42FEF2C939F3049F011962C9119
:1050200011973DE0230F08F42FEF11962C93229651
:10503000BFAD2297BF5F2296BFAF2297BC3008F06A
:1050400046C01F5F880C991CEFEF6E1A7E0AFFEFB7
:10505000CF1ADF0A26962EAD3FAD26972F5F3F4F22
:1050600026963FAF2EAF26971F3009F0BCCE3FEFFC
:10507000431A530A21964EAD5FAD21974E5F5F4FA5
:1050800021965FAF4EAF219724968EAD9FAD2497AA
:105090000F9624969FAF8EAF249796E04916510441
:1050A00009F03ECE2296AFAD2297A11110C08FEF2E
:1050B0008AAF8BAF1CAE0E94D5048160782F9EAF63
:1050C0008DAF4AAD5BAD6CAD8EAD0E942B23C09011
:1050D000D506D090D606E090D706F090D8068FB7C8
:1050E000F8944090930850909408609095087090C0
:1050F00096088FBF530142018C189D08AE08BF0867
:105100000E94C9046093D5067093D6068093D70693
:105110009093D806A091AC06ECEAF6E02A2F30E096
:10512000BFEFCB0EDB1EE11CF11CC418D508E6084E
:10513000F708A313A0C12093AC0620919D08F12C81
:10514000211109C02091FE08E22FE370FE2E19F014
:10515000F22EF694F69420911801213009F4B4C18E
:10516000222309F49BC1223009F4E5C5233009F458
:10517000ECC5E0913907EE0FEE0FE093390783B1EC
:10518000869581702B968FAF2B972C961FAE2C9700
:105190001A9908C680E02C964EAD5FAD2C97842BF3
:1051A000E82BE0933907EF70F0E0EE59FE4F808175
:1051B00090913807890F8093380720E0843034F1CC
:1051C000809137078F5F8093370705E008AB14E0C5
:1051D00019AB2AAA0E94D5048160782F9CAB8BABB7
:1051E00048A959A96AA98CA90E942B230BA71CA71F
:1051F0001DA60E94D5048160782F9FA78EA74BA57E
:105200005CA56DA58FA50E942B2321E08091380716
:105210008D3F34F58091370781508093370703E045
:105220000EA314E01FA328A60E94D5048160782F46
:105230009AA789A74EA15FA168A58AA50E942B23E2
:1052400009A31AA31BA20E94D5048160782F9DA3F5
:105250008CA349A15AA16BA18DA10E942B2321E00F
:1052600080913807082E000C990B64E070E00E94D2
:1052700060308093380721110E94C90486E0EBE575
:10528000F7E0DE01119601900D928A95E1F7F0901A
:105290005D07E0905E0710915F0700916007109234
:1052A0005D0710925E0710925F07109260078F2DC6
:1052B0008E2909F448C08091590790915A070E949D
:1052C000BA049C0190915507992309F4CEC6233363
:1052D0003105C8F19F3F19F09F5F90935507FF205C
:1052E00059F00E94330D9FEF1F140CF491E0899F39
:1052F000802D112480935D07EE2059F00E94330D1C
:105300009FEF1E140CF491E0899F802D112480934F
:105310005E0730915D073323B1F020915E072223B1
:1053200091F055EB3503C0011124992309F43DC5D3
:1053300090935D0745EB240390011124332309F476
:1053400037C530935E07812F802B09F448C08091C8
:105350005707909158070E94BA049C0190915407F6
:10536000992309F47DC625363105C8F19F3F19F010
:105370009F5F90935407112359F00E94110D9FEFE6
:1053800011160CF491E0899F802D112480935F0702
:10539000002359F00E94110D9FEF10160CF491E0BC
:1053A000899F802D11248093600730915F073323FC
:1053B000B1F020916007222391F055EB3503C00135
:1053C0001124992309F4F7C490935F0745EB240354
:1053D00090011124332309F4F1C4309360078091C4
:1053E0005D0790915E07892B90915F07892B9091C3
:1053F0006007892B11F00E94670C86E0FE01319650
:10540000ABE5B7E001900D928A95E1F70E940D059A
:1054100090913A07891731F00E940D0580933A0761
:105420000E94B1118091C208843009F05DCC83E004
:105430008093E9008091E80082FF56CC8091E800DB
:1054400090E085FF06C00E944C03882309F4B9C48C
:1054500091E08091E8008B778093E800992309F42C
:1054600043CCE981E150E33108F026C5F0E0E25396
:10547000FE4C0C947430418D528D2A01712C612C9C
:10548000C414D504E604F70420F421503F5F32969B
:1054900050CE480D591D528F418FF8CF10921501F3
:1054A0006093CC087093CD088093CE089093CF087A
:1054B00089E2ECEAF6E0A0EDB8E001900D928A9561
:1054C000E1F72092180155CE80911301F81224C003
:1054D0009091FE0893702091120130E081E09217C4
:1054E000130609F480E0817080931701809103090D
:1054F00090911601981739F08093160140E060E012
:1055000080E00E94A105F9E2FF1560F0EF2DF0E0C8
:10551000EF51FE4C0C94743081E0E5CF809117017F
:10552000811102C010E027C040E060E080E00E94EE
:10553000A105F8CF0091150184E1089F002D1124E9
:10554000B4E1EB2EE00EDE2C24E62E1510F4A4E6DA
:10555000DA2E6091FF0870910009809101090E9484
:105560000709C62EB72EA82E10E00D15C0F011E0C9
:1055700033E63E15B8F2809115018F5F80931501D7
:105580001111F7CD82E080931801809117018111EC
:10559000F0CDF110EECD83E080931801EACDF80153
:1055A000E555FD4F808190911601892331F02A2D18
:1055B0004C2D6B2DC8010E94A3050F5F1F4FD5CF47
:1055C0000091150184E1089F002D1124F4E1EF2ED4
:1055D000E00EDE2C44E64E1510F4E4E6DE2E80905C
:1055E0000009909001091091FF08612F782D892DF5
:1055F0000E940709C62EB72EA82E60910209610FDE
:10560000782D892D0E940709962E872E782E10E07E
:105610000D1530F011E053E65E1508F0ACCF82CFE7
:10562000F801E555FD4F908180911601892359F0CD
:10563000272D492D682D90FD03C02A2D4C2D6B2D53
:10564000C8010E94A3050F5F1F4FE2CF0091150113
:1056500084E1089F002D112474E1E72EE00ECE2C8A
:1056600084E68E1510F464E6C62EB0900009A09072
:1056700001092091020950E4D52E3D2D329F312D94
:105680001124D32E10E00C1530F011E043E64E1536
:1056900008F071CF47CFF801E555FD4F808190911B
:1056A00016018923B9F0F801EE0FFF1FEC51FE4FF0
:1056B000808182958F706091FF088D9D600D11240F
:1056C0007B2D8A2D0E940709462F282F672FC8019E
:1056D0000E94A3050F5F1F4FD6CF0091150184E1F3
:1056E000089F002D112434E1E32EE00ECE2C54E669
:1056F0005E1510F424E6C22EB0900009A0900109B6
:105700002091020990E4D92E3D2D329F312D112494
:10571000D32E10E00C1508F0B8CFF801E555FD4F79
:105720008081909116018923D9F0F801EE0FFF1FB7
:10573000ED51FE4F6081D69EB001112485E0759534
:1057400067958A95E1F78091FF08680F7B2D8A2D78
:105750000E940709462F282F672FC8010E94A30522
:105760000F5F1F4FD7CF0091150184E1089F002DD7
:105770001124A4E1EA2EE00EDE2C54E65E1510F4AE
:10578000F4E6DF2EC090FF0810910009B0900109E7
:10579000609102096695669566958091CC08909116
:1057A000CD080E94FD080E946308805887FD8195FE
:1057B000880F282F3B2D239F212D1124822F6C2D04
:1057C000712F0E940709C62EB72EA82E10E00D15C6
:1057D00008F05BCFF801E555FD4F808190911601EF
:1057E000892331F02A2D4C2D6B2DC8010E94A30571
:1057F0000F5F1F4FECCF8EE697E00E94DE0A182F56
:10580000BACE84E497E0F9CF85E498E00E940B0CCF
:10581000F6CF86E298E0FACF8BE098E00E948E0BFC
:10582000EECF8FEE97E0FACF82E497E0E6CF89E300
:1058300097E0E3CF80E397E0E0CF87E197E0DDCF2B
:1058400089E097E0EBCF85ED98E0E0CF8EED97E033
:10585000DDCF8AEC97E0E2CF8CED96E00E942C0B36
:10586000CECF8EEA96E0FACF87E796E0F7CF109199
:10587000170111111EC06091020920E1620F08F4A6
:105880006FEF8091CC089091CD080E94FD086AE0EE
:1058900070E00E944C30892B09F044CE0E94CD303C
:1058A00064E670E00E946030609116010E94151657
:1058B00062CEC090150184E1C89E802D1124E4E1E0
:1058C000EE2EE80E0E2D54E65E1508F404E6C82E02
:1058D000D12C10E0C016D10634F011E093E69E15ED
:1058E00008F049CE1FCE60911601C6010E94151620
:1058F0008FEFC81AD80AEECF1091170111111EC0F0
:105900006091020920E1620F08F46FEF8091CC08EA
:105910009091CD080E94FD0865E070E00E944C3037
:10592000892B09F0FFCD0E94CD3064E670E00E9423
:105930006030609116010E94EE151DCEC0901501D9
:1059400084E1C89E802D112474E1E72EE80E0E2D0F
:10595000A4E6AE1508F404E6C82ED12C10E0C0165B
:10596000D10634F011E0E3E6EE1508F004CEDACD0E
:1059700060911601C6010E94EE15BFEFCB1ADB0A3B
:10598000EECF0091150184E1089F002D112464E100
:10599000E62EE00EDE2CF4E6FE1510F454E6D52ECD
:1059A000B0900009C09001091091FF0860910209B0
:1059B0006695669566958091CC089091CD080E9479
:1059C000FD080E946308805887FD8195880F682F25
:1059D0002CE0629F612D1124610F7B2D8C2D0E9484
:1059E0000709C62EB72EA82E10E00D1530F011E0D5
:1059F00023E62E1508F0BFCD95CDF801E555FD4FF6
:105A0000808190911601892331F02A2D4C2D6B2D28
:105A1000C8010E94A3050F5F1F4FE7CF82E898E0FF
:105A2000ECCE86E696E0E9CE0091150184E1089F70
:105A3000002D112444E1542E500EA52C3AE53515C5
:105A400010F43AE5A32E80911701882361F040E01D
:105A500060E080E00E94A105EDEDF6E08AE5DF015F
:105A60001D928A95E9F780911501811115C08091E9
:105A7000DA069091DB060E94BA0421E08931910593
:105A800008F420E02093D906499730F00E94D5040D
:105A90009093DB068093DA0610E0B12C9FE0492E4C
:105AA0002AEA322E0A151B0534F011E0B9E5B515C6
:105AB00008F061CD37CDC80166E070E00E9460302B
:105AC0004B013C01469CC001479C900D1124FC01F8
:105AD000E352F94FE60FF71FE08087579E4FFC0116
