:100000000C945D030C94A4030C94A4030C94A4031B
:100010000C94A4030C94A4030C94A4030C94A403C4
:100020000C94A4030C94A4030C94E8210C94A42134
:100030000C9443290C94A4030C94A4030C94A403DF
:100040000C94A4030C94A4030C94A4030C94A40394
:100050000C94A4030C941F290C94A4030C94A403E3
:100060000C94A4030C94A4030C94A4030C94A40374
:100070000C94A4030C94A4030C94A4030C94A40364
:100080000C94A4030C94A4030C94A4030C94A40354
:100090000C94A4030C94A4030C94A4030C94A40344
:1000A0000C94A4030C94A4030C94A4033101AAFFA0
:1000B000FFFF00000000310155FFFFFF00000000BE
:1000C000310100FFFFFF0000000024010000FFFFDE
:1000D0000000000005010902A10185020901A1003B
:1000E00005091901290515002501950575018102EC
:1000F0009501750381010501093009311581257FBD
:1001000095027508810609381581257F95017508C6
:100110008106050C0A38021581257F950175088135
:1001200006C0C005010980A101850319012AB70095
:10013000150126B700950175108100C0050C090155
:10014000A101850419012AA002150126A00295012A
:1001500075108100C005010906A101850505071973
:10016000E029E715002501950875018102050719A9
:100170000029EF1500250195F07501810205081988
:10018000012905950575019102950175039101C03D
:100190000660FF0961A1010962150026FF00952094
:1001A000750881020963150026FF009520750891E6
:1001B00002C005010906A101050719E029E715009C
:1001C00025019508750181029501750881010507D2
:1001D000190029FF150026FF009506750881000506
:1001E000081901290595057501910295017503917D
:1001F00001C000010101010101010101020202022D
:1002000002020202020303030303030303040404C0
:100210000404040405050505050606060606070789
:1002200007070708080808090909090A0A0A0B0B41
:100230000B0C0C0C0D0D0D0E0E0E0F0F0F101011E0
:100240001111121213131414151516161717181866
:1002500019191A1A1B1B1C1D1D1E1E1F20202122CE
:1002600022232424252626272829292A2B2C2D2D14
:100270002E2F30313232333435363738393A3B3C31
:100280003D3E3F404142434445464748494A4C4D24
:100290004E4F50515354555658595A5B5D5E5F61ED
:1002A0006264656668696B6C6D6F70727375777880
:1002B0007A7B7D7E8082838587888A8C8E8F9193DE
:1002C0009596989A9C9EA0A2A3A5A7A9ABADAFB105
:1002D000B3B5B7BABCBEC0C2C4C6C9CBCDCFD1D4EA
:1002E000D6D8DBDDDFE2E4E7E9EBEEF0F3F5F8FA90
:1002F000FDFFFFAA7F55402223252628292A2C2DE1
:100300002F3032333536383A3B3D3E404243454745
:10031000494A4C4E5051535557595A5C5E6062647D
:100320006668696B6D6F71737577797B7D7F81838B
:100330008587898A8C8E90929496989A9C9E9FA18C
:10034000A3A5A7A8AAACAEAFB1B3B4B6B8B9BBBCAD
:10035000BEBFC1C2C3C5C6C7C9CACBCCCDCED0D122
:10036000D2D2D3D4D5D6D7D7D8D9D9DADADBDBDB1A
:10037000DCDCDCDCDCDDDDDDDDDCDCDCDCDCDBDBBB
:10038000DBDADAD9D9D8D7D7D6D5D4D3D2D2D1D00F
:10039000CECDCCCBCAC9C7C6C5C3C2C1BFBEBCBB0C
:1003A000B9B8B6B4B3B1AFAEACAAA8A7A5A3A19F84
:1003B0009E9C9A98969492908E8C8A898785838148
:1003C0007F7D7B79777573716F6D6B696866646229
:1003D000605E5C5A5957555351504E4C4A494745F7
:1003E0004342403E3D3B3A3836353332302F2D2C98
:1003F0002A29282625232229001E001F002000214B
:10040000002200230024002500260027002D002EB6
:10041000002A0053002B0014001A000800150017D2
:10042000001C0018000C00120013002F00300031D7
:10043000005400396104001600070009000A000B8F
:10044000000D000E000F0033003400280055005648
:1004500000E1001D001B000600190005001100103E
:1004600000360037003800E5005F0060006100E002
:1004700000E300E200AA00C25CA9002C00E6000133
:1004800051E40059005A005B005C005D0000000070
:10049000000000000000005200500051004F004CCE
:1004A000006200630058005E005700010001000177
:1004B0000001000100010001000100010001000134
:1004C0000001000100010001000100010001000124
:1004D000000100005C010001000100010001004674
:1004E0000001000100010001000100010001000104
:1004F00000010001000100010001000100010001F4
:1005000000010001000100010001000100010001E3
:1005100000010001000100010001000100010001D3
:1005200000010001000100010001000100010001C3
:1005300000010001000100010001000100010001B3
:100540000000000000000000000000C95CC25CCA9E
:100550005CC35C010001000100010001000100001A
:10056000000000000000000000000000000000008B
:100570000000007E0F00D4FFFFFFC70000007800DE
:10058000000000000000002A2B28000000000000EE
:100590000000000000000000000029000000002C06
:1005A0001E3420212224342627252E362D373827A5
:1005B0001E1F202122232425263333362E37381FB1
:1005C0000405060708090A0B0C0D0E0F1011121373
:1005D0001415161718191A1B1C1D2F3130232D3511
:1005E0000405060708090A0B0C0D0E0F1011121353
:1005F0001415161718191A1B1C1D2F3130354CCA2B
:1006000000C000B600AC00000032190A00047F3FB1
:100610001F643214643214783C1E1E140A05090249
:100620005B00030100A0FA090400000103010100BE
:100630000921110100012240000705810308000A79
:100640000904010002030000000921110100012238
:100650002200070582032000010705030320000193
:100660000904020001030000000921110100012218
:10067000BC000705840320000A12011001000000DD
:10068000084A418200010001020301040330000016
:10069000000E0341004B00380032005600450000B8
:1006A000001203410074006C0061006E0074006968
:1006B0000073000000040309040011241FBECFEFE3
:1006C000DAE0DEBFCDBF04B603FE27C08091F40997
:1006D0009091F509A091F609B091F7098730904BF8
:1006E000A740B04BD1F41092F4091092F509109282
:1006F000F6091092F70914BE84B7877F84BF0FB63E
:10070000F894A895809160008861809360001092B1
:1007100060000FBEE0E0F8E3099529E0A0EBB1E04E
:1007200001C01D92A43FB207E1F711E0A0E0B1E0E3
:10073000EAE2F6E502C005900D92A03BB107D9F7B9
:100740000E94D6220C94C82A0C940000E8EDF0E038
:1007500080818E7F80831092E2001092DA001092E6
:10076000E100A0EEB0E08C9181608C9380818F7766
:10077000808319BCA7EDB0E08C918E7F8C93808133
:100780008F7E80831092BA0908952091E400309101
:10079000E50095E6A9012091EC00822F817020FFF1
:1007A00006C08091E80080FF06C080E00895209197
:1007B000E80022FD1AC08091EF09882389F0853076
:1007C00089F08091EB0085FD0FC02091E40030910D
:1007D000E50042175307F9F29150E1F684E00895DD
:1007E00082E0089583E0089581E00895EF92FF92FA
:1007F0000F931F93CF937C018B010E94C503C82FD9
:10080000811117C08091E80085FD0BC08091E80040
:100810008E778093E8000E94C503882399F3C82F40
:1008200008C0F70181917F018093F1000150110907
:1008300049F78C2FCF911F910F91FF90EF90089562
:10084000CF93FC018091EF09843001F5C091E9005C
:10085000CF702091EC00922F917020FD90E8C92B71
:1008600082E08093E9008091E80080FF0CC050E0B6
:1008700040E060E270E0CF010E94F6038091E80062
:100880008E778093E800CF70C093E900CF910895F0
:100890008091E70987FF13C08091E80082FF06C0BE
:1008A0008091E8008B778093E80004C08091EF0985
:1008B0008111F2CF08958091EF098823D9F38091B7
:1008C000E80080FFF8CF8091E8008E77ECCF982F7A
:1008D0009093E900242F762F50E0891731F0709122
:1008E000EC002091ED005091F00021FD07C09F5FCA
:1008F000973071F78093E90081E008953091EB0023
:100900003E7F3093EB003091ED003D7F3093ED0062
:100910003091EB0031603093EB007093EC0020934A
:10092000ED005093F0002091EE0027FDE0CF80E035
:100930000895CF92DF92EF92FF920F931F93CF9380
:10094000DF93C8EDD0E088818F7E8883E7EDF0E00B
:1009500080818160808384E082BF81E08093BA09D6
:1009600088818E7F888302EE10E0F8011082109259
:10097000DA0081EEC82ED12CF601108288818F77A3
:10098000888388818068888388818F7D888319BC6B
:100990001092EF091092E6091092E5091092E4090D
:1009A00090EEE92EF12CF70180818B7F8083888186
:1009B0008160888342E060E080E00E946704F60185
:1009C00080818E7F8083F801808181608083808137
:1009D00088608083F70180818E7F80838881806139
:1009E0008883DF91CF911F910F91FF90EF90DF905F
:1009F000CF900895FC018091ED099091EE09861742
:100A00009707A0F06115710529F49091E8009E7791
:100A10009093E80090E06115710551F4911108C0C0
:100A20008091E80082FF34C080E00895BC01F2CFDD
:100A30008091EF098823C1F18530C1F18091E800F0
:100A400083FD30C08091E80082FDEACF8091E8000C
:100A500080FFE1CF8091F3002091F200382F6115E3
:100A6000710519F02830310558F091E02830310532
:100A700009F090E02091E8002E772093E800CBCF9A
:100A800081918093F100615071092F5F3F4FE7CF53
:100A90008091EF09882341F0853041F08091E80092
:100AA00083FFBECF81E0089582E0089583E008953A
:100AB0008091EF09843011F482E0089581E0089577
:100AC00008958091C309089590919509803F41F45C
:100AD0008091960987FD10929609992371F00895E7
:100AE000813F29F4809196091816ACF3F6CF823F26
:100AF00081F497FFF2CF1092950980919609909119
:100B00009709892B90919809892B49F710929009A0
:100B10000895833F19F4191674F3DFCF893F39F430
:100B2000809197091816CCF610929709D6CF8A3F74
:100B300029F48091970987FFD0CFF6CF8B3F39F406
:100B40008091980987FFC9CF10929809C6CF8C3F32
:100B500029F4809198091816BCF3BFCF843F31F473
:100B6000809194098E7F80939409B7CF853F21F4BB
:100B7000809194098D7FF7CF863F21F4809194096D
:100B80008B7FF1CF873F21F480919409877FEBCF52
:100B9000883F21F4809194098F7EE5CF8D3F31F419
:100BA00080916E098E7F80936E0997CF8E3F21F4DE
:100BB00080916E098D7FF7CF8F3F09F08ECF8091A6
:100BC0006E098B7FF0CF80916E0980FD16C081FD8C
:100BD00016C082FD16C0809190098823A1F088324A
:100BE00080F428E0829FC001112468E270E00E9436
:100BF0008A29862F672B39F0089582E0089584E0D2
:100C0000089588E0089581E0089580916E0980FD3F
:100C100014C081FD14C082FD16C080919009882304
:100C200081F0843180F422E3829FC001112464E1C9
:100C300070E00E948A29862F08958CE0089589E14A
:100C4000089585E0089582E30895803F31F40E947D
:100C500005068195809396090895813F19F40E94B5
:100C60000506F8CF823F31F40E94050681958093F6
:100C700095090895833F19F40E940506F8CF893F2E
:100C800029F40E94E3058093970908958A3F21F48F
:100C90000E94E3058195F7CF8B3F31F40E94E30575
:100CA00081958093980908958C3F19F40E94E3057B
:100CB000F8CF843F31F48091940981608093940946
:100CC0000895853F21F4809194098260F7CF863F93
:100CD00021F4809194098460F1CF873F21F48091C1
:100CE00094098860EBCF883F21F48091940980615A
:100CF000E5CF8D3F31F480916E09816080936E095C
:100D000008958E3F21F480916E098260F7CF8F3F66
:100D1000B9F780916E098460F1CF9C014FB7F894C8
:100D20008091B6099091B709A091B809B091B9091D
:100D30004FBF821B930B08952FB7F8948091B6098B
:100D40009091B709A091B809B091B9092FBF089542
:100D5000E0918009F0918109309749F082E0809319
:100D600093090480F581E02D83E999E009950E94BB
:100D70009C0690938F0980938E090895809169094C
:100D8000811110926909089580916809909167090D
:100D9000892B90916609892B8093B0019091690904
:100DA0009923A1F0892B8093B00180911F018823A2
:100DB00041F180917E0987FF24C08EE1E2EBF1E0F2
:100DC00090E0815000F591110E94BE06E0918009EB
:100DD000F09181093097E1F080911F01882359F04B
:100DE00080917E0987FF07C08091B0018093B10197
:100DF00085E08093B0010280F381E02D80EB91E0EB
:100E0000099486E0DBCF21912223D9F29F5FD9CFCD
:100E1000089590911F019923D1F090917E0997FF39
:100E200016C0E82FE695E695E695EE31E0F4F0E0A1
:100E3000E055FE4F282F277081E090E001C0880F19
:100E40002A95EAF780959281892382830895E2EBBF
:100E5000F1E09191891303C0DF0111971C9291E099
:100E6000E83BF907B1F7089590911F019923C1F06C
:100E700090917E0997FF14C0E82FE695E695E695D8
:100E8000EE31F8F4F0E0E055FE4F877021E030E0FD
:100E900001C0220F8A95EAF78281822B828308950E
:100EA000A2EBB1E0EFEF90E02D91821751F0EF3F10
:100EB00019F4211101C0E92F9F5F9630A9F7EF3F88
:100EC00009F408950E2E000CFF0BE055FE4FE6CFFF
:100ED0002FE0929F800D1124982F9770869586950C
:100EE000869525E0829FF0011124E75DF64F50E0E2
:100EF00040E080E0219130E0092E02C03695279530
:100F00000A94E2F721703327042E01C0220F0A94BD
:100F1000EAF7822B4F5F5F4F4530510559F708952F
:100F20002FE0929F800D1124982F977041E001C00F
:100F3000440F9A95EAF786958695869595E0899F60
:100F4000F0011124E75DF64F90E080E070E05191F0
:100F5000DF0111979B01082E02C0369527950A9450
:100F6000E2F7217021952527242325272C9301962C
:100F70008530910561F70895809128099091F708CF
:100F8000981301C008958F5F8770FACF882341F0CE
:100F90008095909168098923809368090C94C40610
:100FA0000895882339F090916809982B90936809E7
:100FB0000C94C40608952091EA053091EB0528179A
:100FC000390771F09093EB058093EA05E091800971
:100FD000F0918109309721F00084F185E02D09948A
:100FE00008952091E8053091E9052817390771F037
:100FF0009093E9058093E805E0918009F0918109DB
:10100000309721F00680F781E02D09940895109221
:101010006709109266090E94C40686E0E3E9F9E0D8
:10102000DF011D928A95E9F71092900910926E09DE
:101030000E94A80690E080E00E94F10790E080E026
:101040000C94DB0760936A0970936B0980936C09B9
:1010500090936D090C940708E0918009F091810943
:10106000309721F00190F081E02D099480E00895FF
:10107000882309F459C0823871F40E942C0881FF3A
:1010800053C089E30E9434070E94C40689E30E948A
:1010900009070C94C406833859F40E942C0880FF79
:1010A00043C083E50E9434070E94C40683E5EFCF66
:1010B000843859F40E942C0882FF36C087E40E94CD
:1010C00034070E94C40687E4E2CF9CEF980F913A60
:1010D000F0F290E2980F983088F4877021E030E0C9
:1010E000A90102C0440F551F8A95E2F7CA018095F5
:1010F00090916809892380936809CBCF9BE5980F6D
:10110000933020F490E080E00C94F10798E5980F7C
:10111000973120F490E080E00C94DB07803F20F0D2
:101120000E9464050C94A8060895FA01811101C07B
:10113000FB0109948091BB09982F9E7F61F4817017
:1011400082608093BB098091BE09813A18F080EAE1
:101150008093BE0908958635B0F381708465F1CF20
:10116000AF92BF92DF92EF92FF920F931F93CF93B4
:10117000DF93182F062FE901413A08F040EAE42FE7
:10118000F0E0EE50FE4F011110C0E4915E2F4E2FA3
:101190004983E8835A83DF91CF911F910F91FF908C
:1011A000EF90DF90BF90AF900895202F30E04491F2
:1011B000D42EE42EF12C56E0159FC0011124EFEF40
:1011C000F0E0BF010E947629812F90E0880F991FDF
:1011D00055E5569FD001579FB00D11248A1B9B0BDC
:1011E000982F990F890F5F01A21AB30AAE9CD00104
:1011F000AF9CB00DBE9CB00D11245B2F089F8001E9
:101200001124012F11275F01A01AB10AAE9C8001A1
:10121000AF9C100DBE9C100D11245F01A81AB108DF
:10122000A29EC001A39E900DB29E900D1124892F05
:101230009927E81BF90BEE9DC001EF9D900DFE9DD7
:10124000900D1124E92F62307105A1F050F4611561
:10125000710509F49DCF6130710581F0EB2F512F9D
:1012600097CF6430710569F080F06630710509F43C
:101270008FCFF4CFE42F4B2F592F8ACFE42F412F5C
:1012800087CFEB2F542F492F83CF4B2F5D2DE12F8D
:101290007FCF90917E0992FF06C0282F28712830B9
:1012A000F9F4877F846093FF06C0282F28712831C6
:1012B000F1F4877E846120917F0920FF06C0382FDA
:1012C00038713830D9F4877F816021FF06C0282F1C
:1012D00028712831D1F4877E816194FD877E08953D
:1012E000282F24712430F9F68B7F8860DCCF282FDB
:1012F0002471243101F78B7E8861DDCF382F317165
:10130000313019F78E7F8860E0CF282F217121318D
:1013100021F78E7E8861E1CFCF93DF9300D00F92CB
:10132000CDB7DEB79091EF09943011F589837B83B7
:101330006A839093E9008FEF9091E800815095FDCA
:1013400006C095ED9A95F1F700008111F5CF8091D7
:10135000E80085FF0DC050E040E063E070E0CE01A2
:1013600001960E94F6038091E8008E778093E80052
:101370000F900F900F90DF91CF910895CF93DF934F
:10138000EC010E945805823011F0843031F4BE0126
:1013900084E0DF91CF910C948C09DF91CF91089577
:1013A000BC0183E00C948C09CF93DF93EC010E9485
:1013B0005805823011F08430F9F484E08093E9001C
:1013C0008FEF9091E800815095FD06C095ED9A95BC
:1013D000F1F700008111F5CF8091E80085FF0CC086
:1013E00050E040E066E070E0CE010E94F60380919C
:1013F000E8008E778093E800DF91CF910895CF9336
:10140000DF93EC010E945805823011F08430B9F569
:1014100080911F018823B1F180917E0987FF32C03E
:1014200060E284E08093E9008FEF9091E8008150C2
:1014300095FD06C095ED9A95F1F700008111F5CF65
:101440008091E80085FF1BC080911F0170E050E093
:1014500040E0811104C050E040E068E070E0CE015F
:101460000E94F6038091E8008E778093E80080E286
:10147000FE01A4ECB9E001900D928A95E1F7DF91AD
:10148000CF91089568E081E0CDCF81E08093E000C6
:1014900080E28093D8001092C9008FE19EE401970A
:1014A000F1F700C0000087E090EBDC018093F409C5
:1014B0009093F509A093F609B093F70988E19CE0B1
:1014C0000FB6F894A895809360000FBE90936000CB
:1014D000FFCFCF93C82F882309F4AEC08238C1F460
:1014E0000E942C0881FDA8C089E30E9434070E9455
:1014F000C4062FEF81EE94E0215080409040E1F748
:1015000000C0000089E30E940907CF910C94C40633
:101510008338A1F40E942C0880FD8EC083E50E94D0
:1015200034070E94C4062FEF81EE94E021508040E2
:101530009040E1F700C0000083E5E5CF8438A1F4D6
:101540000E942C0882FD78C087E40E9434070E9424
:10155000C4062FEF81EE94E0215080409040E1F7E7
:1015600000C0000087E4CFCF8CEF8C0F813A88F564
:1015700080911F01882301F180917E0987FF1CC0A3
:10158000EC2FE695E695E695F0E0E055FE4F82817A
:1015900090E04C2F477021E030E002C0220F331F53
:1015A0004A95E2F782239323892B79F08C2F0E94AE
:1015B00009070E94C40609C0E2EBF1E08191C81757
:1015C000A9F321E0E83BF207C9F78C2F0E9434070A
:1015D0009CCF80E28C0F883068F4C77021E030E047
:1015E00001C0220FCA95EAF780916809822B809387
:1015F00068098BCFEBE5EC0FE33040F4F0E0E55BFE
:10160000FE4F808190E0CF910C94F107E8E5EC0F5C
:10161000E73150F4F0E0EE0FFF1FE25BFE4F8081F8
:101620009181CF910C94DB07C03F30F08C2F0E944A
:101630002506CF910C94A806CF910895CF93C82F7B
:101640000E94690AC93349F42FEF87EE93E02150D5
:1016500080409040E1F700C000008C2FCF910C94A7
:1016600038080F931F93CF93DF93C62FD42F022FE9
:10167000FC0182818823A1F06093EF080E949C0600
:101680009093E7058093E605C77081E001C0880F5D
:10169000CA95EAF7DF91CF911F910F910C94D10772
:1016A0001091EF08161335C08091E6059091E7057B
:1016B0000E948D06883C910560F5C0E2CD0F1D1794
:1016C000B9F080E2810F883040F4177081E001C0EA
:1016D000880F1A95EAF70E94C607C83048F481E0DF
:1016E0009D2F977001C0880F9A95EAF70E94D10745
:1016F000802F0E941E0BC83098F4D77081E001C083
:10170000880FDA95EAF7DF91CF911F910F910C9432
:10171000C607C77081E001C0880FCA95EAF7F3CF0A
:10172000DF91CF911F910F9108957F928F929F9299
:10173000AF92BF92CF92DF92EF92FF920F931F93DF
:10174000CF93DF930CE711E0AFE6B9E0712CCC2426
:10175000C394D12CE80189918E01E82FE295EF70B6
:10176000F0E091A18F70760101C0EE0C8A95EAF746
:10177000892F8E2981A392A17E2D7095972392A304
:10178000D0EADA95F1F792E8A92E91E0B92E50E06F
:1017900040E030E020E0E50169915E01862E829410
:1017A0008FE08822912CE40188A190E06F7002C044
:1017B000959587956A95E2F780FD6DC0C601042E68
:1017C00002C0880F991F0A94E2F7282B392B4F5F2C
:1017D0005F4F4F305105F9F681A1872381A382A184
:1017E000E82AE2A28D919C9111972817390709F4F4
:1017F00055C011963C932E9381E0782A1296D1E041
:1018000002381D0709F0A6CF772009F449C081E00E
:101810008093D2010E949C069093D1018093D001C5
:101820008091D0019091D1010E948D060697E0F140
:1018300080916F09909170099093AB098093AA09E8
:1018400080917109909172099093AD098093AC09D0
:1018500080917309909174099093AF098093AE09B8
:1018600080917509909176099093B1098093B009A0
:1018700080917709909178099093B3098093B20988
:101880008091790990917A099093B5098093B40970
:101890001092D20109C090E080E097CF80E0ADCFF8
:1018A0008091D2018111BCCF872DDF91CF911F9103
:1018B0000F91FF90EF90DF90CF90BF90AF909F90EF
:1018C0008F907F900895CF9384E090E00E941D2A2E
:1018D000C82F81E290E00E941D2A982F8C2FCF9173
:1018E00008950F931F93CF93DF93C42FD0E0CC0FB5
:1018F000DD1F2EE1629FC00DD11D112434EB839FAB
:10190000C00DD11D1124CE0186960E941D2A082FDC
:1019100010E0102F0027CE0187960E941D2A980103
:10192000282BC901DF91CF911F910F910895462F68
:10193000843038F4763028F46F3018F4672F0C9424
:10194000710C90E080E00895CF93DF930E94970C94
:10195000EC0182389105A9F1D8F58133910509F49C
:1019600096C048F58932910509F48AC08A9709F42E
:1019700095C0C11521E5D20708F0BCC0C11530E5FE
:10198000D30708F014C1C83ED10508F09CC0C03E82
:10199000D10560F5C83AD10508F087C0C53AD10530
:1019A00008F0FDC0C130D10509F12097F9F0C4302D
:1019B000D105E0F440C08533910509F45AC0C997B8
:1019C000C1F680917E09837089F0C0EED0E00EC030
:1019D000833E910599F170F4803E910501F1823EBC
:1019E000910539F680917E0982FD21C0CE01DF91FB
:1019F000CF910895863E910561F1873E910571F181
:101A0000843E910509F0B5CF80917F0981FFEECF2B
:101A100080917E09C7EED0E084FD0DC0E7CF8091B4
:101A20007E0980FD12C190917F0990FFDFCFC3EE48
:101A3000D0E084FFDBCFD0E0C0E0D8CF80917E093A
:101A400082FD06C190917F0990FDBFCF84FFCECF6C
:101A5000F2CF80917E0983FDDDCFC8CF80917E09D2
:101A600083FDF9C090917F0991FFF0CFC4EED0E0E3
:101A7000BDCF80917E0985FFB9CFC9E2D0E0B6CF56
:101A800080917E0985FFB2CFC5E3D0E0AFCF8091D2
:101A90007E0986FFABCFCAE2D0E0A8CF80917E0955
:101AA00086FFA4CFC1E3D0E0A1CFCF3BD10518F68C
:101AB000C85AD0E0CC0FDD1FC25BDE4F0990D88141
:101AC000C02DD46493CFC11540E2D40758F4C1159A
:101AD00081E0D80708F08ACFC03FD10508F4ABCF2A
:101AE000D06584CFC11590E4D90708F4A4CFDF7086
:101AF000D06A7CCFC11525E5D20700F5C11534E5C4
:101B0000D30708F08AC0C11543E5D40708F071C0B7
:101B1000C11582E5D80708F467C0CE018370992704
:101B200021E030E002C0220F331F8A95E2F7C6950C
:101B3000C69580E2C89FE001112452C0C11599E505
:101B4000D907A8F4C11528E5D20708F06BC0C11564
:101B500036E5D30708F06FCF8C2F0E944909C82FB4
:101B6000D0E0DC2FCC27CC27DF71D0623FCFC1156E
:101B70004AE5D40708F45BC0CE0190568115904227
:101B800008F059CF8D2F8F710E94490990E0982F4E
:101B9000882788279F719C012C2BE901E6CFC55A25
:101BA000D0E0C55BDE4FC881D0E0D0641FCFCE014E
:101BB000E4E096958795EA95E1F783702C2F2695BA
:101BC0002695237040E2249F90011124382B8C2FFE
:101BD0008370C1E0D0E002C0CC0FDD1F8A95E2F730
:101BE000C22BD32BDC6802CFDC2FCC27C16FD06A8D
:101BF000FDCECE018370992721E030E002C0220F94
:101C0000331F8A95E2F7C695C69590E2C99FE00119
:101C10001124C22BD32BDA68E9CEDC2FCC27C46F7A
:101C2000D06AE4CEDC2FCC27C06FD06ADFCE8C2FF9
:101C30008F700E94490934E0D695C7953A95E1F72F
:101C4000CF709C2FEC01D069D1CEC9E3D0E0CECECD
:101C5000C2EED0E0CBCEC6EED0E0C8CEBF92CF92DF
:101C6000DF92EF92FF920F931F93CF93DF938C013C
:101C7000C090F009D090F109E090F209F090F309DA
:101C800080916A0990916B09A0916C09B0916D09DE
:101C9000C82AD92AEA2AFB2ACFE1D0E0BC2ED701F4
:101CA000C6010C2E04C0B695A795979587950A9402
:101CB000D2F780FD0EC0219788F7B12C8B2DDF91D4
:101CC000CF911F910F91FF90EF90DF90CF90BF9039
:101CD0000895B8018C2F0E94A40C019761F3EECFF8
:101CE000CF93DF93EC010E942E0EBE01DF91CF91C6
:101CF0000C94A40C0E94700E292F2F7092959F7047
:101D000092509E3078F4E92FF0E0E653F54D0C94B4
:101D10009E29803F19F020F4883E20F481E0089548
:101D2000843FE1F380E00895883EC0F3813FD1F71E
:101D3000F5CF822F86958695869508956F927F922E
:101D40008F929F92AF92BF92CF92DF92EF92FF92CB
:101D50000F931F93CF93DF9387EFC82E83E0D82E86
:101D600098EFE92EF12CE701C45BD10936011BC0C5
:101D7000F50185909490692DC8010E94312A682D43
:101D8000C80101960E94312A82E0A80EB11C0E5FA4
:101D90001F4FC017D10761F78EE1680E711C6E9658
:101DA000CE15DF0529F08E010E5111095301E0CF48
:101DB0007E0184EBE80EF11C84EBC80ED11C88EC8C
:101DC000E81683E0F80679F6DF91CF911F910F9125
:101DD000FF90EF90DF90CF90BF90AF909F908F904B
:101DE0007F906F900895CF93DF93C6EFD2E060E0CD
:101DF000CE010E94312A2196C11584E0D807B9F797
:101E0000DF91CF910895CF93C82F6FEF811161E2D9
:101E100082E290E00E94312A6FEFC11169E083E213
:101E200090E00E94312A6FEFC11160E384E290E0FC
:101E3000CF910C94312A6CEE7EEF90E080E00E940E
:101E40004F2A60E082E090E00E94312A60E083E067
:101E500090E00E94312A10926A0910926B09109248
:101E60006C0910926D0960E084E090E00E94312AD4
:101E700060E081E290E00E94312A60E085E090E03D
:101E80000E94312A60E086E090E00E94312A6FEFE4
:101E900087E090E00E94312A40E050E0BA0188E0FB
:101EA00090E00E94432A60E08DE090E00E94312A99
:101EB00040E050E0BA0188E190E00E94432A60E0EF
:101EC00087E190E00E94312A40E050E0BA018CE1C5
:101ED00090E00E94432A60E080E290E00E94312A74
:101EE00040E050E0BA018FE090E00E94432A40E0D9
:101EF00050E0BA0183E190E00C94432ACF92DF9244
:101F0000EF92FF926B017C010E949A08B701A60133
:101F100088E090E0FF90EF90DF90CF900C94432A00
:101F20008091BF09833018F48F5F8093BF0960915F
:101F3000BB097091BC098091BD099091BE090C94B8
:101F40007E0F8091BF09882319F081508093BF09CB
:101F50006091BB097091BC098091BD099091BE0947
:101F60000C947E0FEBEBF9E083E0808311828FEF1E
:101F7000828380EA8383148260817181828193816C
:101F80000C947E0F1092680980911F01E2EBF1E042
:101F9000882359F080917E0987FF07C08EE1DF0119
:101FA0001D928A95E9F70C94070886E0F8CF1F93F5
:101FB000CF93DF93CDB7DEB7AA970FB6F894DEBF05
:101FC0000FBECDBF87EE99E02091F100DC012D938B
:101FD000CD01B9E08F3E9B07B9F78091E8098330C6
:101FE00009F471C0B8F4813009F448C0823009F4B2
:101FF000B2C08091E80083FF3AC18091E7099091D7
:10200000E8099A3008F033C1E92FF0E0E852F54DC5
:102010000C949E298A3009F48DC08B3009F470C06D
:10202000893039F78091E709813219F78091EB09FE
:102030009091EC09009711F00297D9F68091E80091
:10204000877F8093E8008091E80082FF37C09091FD
:10205000F3008091F200029729F48091F1008B7FC8
:10206000813021F48091F1008093C3098091E800D0
:102070008B778093E8000E944804BBCF8091E709EA
:10208000813A09F0B6CF8091E800877F8093E8001D
:102090008091EB099091EC09892B61F460E284EC6A
:1020A00099E070E00E94FA048091E8008B778093B9
:1020B000E8009FCF60E090E080E0F3CF8091EF09EF
:1020C0008111C1CF96CF8091E709813A09F091CF74
:1020D0008091EB099091EC09892B09F08ACF8091CE
:1020E000E800877F8093E8008091E80080FFFCCFC4
:1020F00080911F018093F1008091E8008E77B9CF25
:102100008091E709813209F074CF8091EB099091B9
:10211000EC09892B09F06DCF8091E800877F8093CF
:10212000E8000E9448048091E90980931F010E9401
:10213000C20F5FCF8091E709813209F05ACF8091B9
:10214000E800877F8093E8000E9448048091EA09B4
:102150008093C2094ECF8091E709813A09F049CFB7
:102160008091E800877F8093E8008091E80080FFFD
:10217000FCCF8091C209BECF803899F0823809F037
:1021800076C08091EB098F70873008F070C0809323
:10219000E9008091EB0085FB882780F91092E90027
:1021A00006C08091E4099091E509911182609091B7
:1021B000E800977F9093E8008093F1001092F1007F
:1021C0008091E8008E77C0C1882309F4ADC18230C8
:1021D00009F04DC08091E9098111B1C18091EB09ED
:1021E0008F702FEF280F263008F041C08093E90050
:1021F0002091EB0020FFA3C1933031F48091EB00DC
:1022000080628093EB009BC19091EB009061909372
:10221000EB0021E030E001C0220F8A95EAF720931D
:10222000EA001092EA008091EB008860EACF811109
:102230001EC01091E9091F778091E3008078812BFF
:102240008093E3008091E800877F8093E8000E94FC
:1022500048048091E80080FFFCCF8091E300806813
:102260008093E30082E0111183E08093EF09809175
:10227000E80083FF0AC08091E800877F8093E80030
:102280008091EB0080628093EB00AA960FB6F894E1
:10229000DEBF0FBECDBFDF91CF911F910895805853
:1022A000823028F72091E9093091EA092C3DE3E0DA
:1022B0003E07A1F583E08A838AE289834FB7F894C9
:1022C000DE01139620E03EE051E2E32FF0E0509370
:1022D0005700E49120FF03C0E295EF703F5FEF707D
:1022E0008E2F90E0EA30C0F0C7968D939D932F5FBC
:1022F000243159F74FBF8091E800877F8093E80031
:102300006AE270E0CE0101960E94FA048091E80032
:102310008B778093E800ABCFC096E7CF8091EB0935
:102320009091EC09432F55274330510509F44AC0D9
:1023300078F54130510509F485C08BE590E0EEE178
:10234000F6E04230510509F092CF2091E800277F56
:102350002093E8002091ED093091EE098217930750
:1023600008F49C0140E02115310509F070C04111CD
:102370006EC08091E80082FDC9CF8091EF0988236B
:1023800029F2853019F28091E80083FFF2CFBECFA9
:102390004132510509F447C04232510509F067CF77
:1023A0008330910508F063CFFC01EE0FFF1FEC5561
:1023B000FE4F0190F081E02D8F559E4FDC018C91F6
:1023C00090E01DC0332721303105E9F0211531059A
:1023D00079F022303105F9F02330310509F047CF8B
:1023E000EBE8F6E0E4918E2F90E0EBE8F6E007C032
:1023F000E5EBF6E0E4918E2F90E0E5EBF6E0009758
:1024000009F435CFA2CFE1EAF6E0E4918E2F90E017
:10241000E1EAF6E0F4CFE1E9F6E0E4918E2F90E016
:10242000E1E9F6E0ECCF8330910508F020CF880F8A
:10243000991FFC01E655FE4F0190F081E02D89E0E7
:1024400090E083CF82E190E0E9E7F6E07ECF8091F3
:10245000EF09882309F45ACF853009F457CF8091CA
:10246000E80083FD53CF8091E80082FD82CF809108
:10247000E80080FF78CF9091F3008091F200211561
:10248000310519F08830910550F041E0089709F0C6
:1024900040E08091E8008E778093E80064CF44911B
:1024A0004093F1003196215031090196E8CF8038F0
:1024B00009F0DDCE8091E800877F8093E80080916D
:1024C000E6098093F1007CCE8111D1CE1091E9090B
:1024D000123008F0CCCE8091E800877F8093E8002E
:1024E0001093E6090E944804112311F084E005C00E
:1024F0008091E30087FDFACF81E08093EF0942E00D
:1025000061EC81E00E94670442E261EC84E00E9499
:10251000670442E261EC82E00E94670442E260EC00
:1025200083E00E946704A3CE8091E909813009F01D
:102530009ECE81E0933009F080E08093E50910920F
:10254000E9008091E800877F8093E8000E944804BA
:102550008ECE6091BB09669570E04BE050E084E060
:1025600091E00E94102A892B19F481E08093A80938
:102570000E949C06909384098093830908955F923A
:102580006F927F928F929F92AF92BF92CF92DF9283
:10259000EF92FF920F931F93CF93DF9300D000D061
:1025A0000F92CDB7DEB78091BB0980FD0AC0E6ED82
:1025B000F1E0118210821282339623E0EC35F207AB
:1025C000C1F780907C0990907D098114910409F4F1
:1025D00055C0D12CC12C66246394712C53E0552E28
:1025E0008091A90993010C2C01C0220F0A94EAF7EB
:1025F000822309F43BC0F601EE0FFF1FE80DF91D21
:10260000E590F490E114F104C9F145E050E0B70120
:10261000CE0101960E94072A09810F3F39F18A8174
:10262000800F9927991F8338910514F082E890E074
:102630005C01AA0CBB1C8A0D9B1DFC01EA52FE4FDB
:102640005F01059D800111240A521E4F0A151B05CA
:1026500020F0F5E0EF0EF11CD8CF98014D816C8190
:102660008B810E94B0080D5F1F4FF0CF2FEFC21A71
:10267000D20A38E0C316D10409F0B2CF6E9A3EB147
:102680003F7B2EB120644FB7F89486ED91E0FC01BA
:102690005191CF0168E02EB9000000C057FF3EB94C
:1026A000550F000000C000C000C03EB900C06A95D0
:1026B00091F7F3E08C359F0751F74FBF8FE594E01A
:1026C0000197F1F700C000000F900F900F900F904E
:1026D0000F90DF91CF911F910F91FF90EF90DF90BE
:1026E000CF90BF90AF909F908F907F906F905F90B2
:1026F00008958F929F92AF92BF92CF92DF92EF9206
:10270000FF920F931F93CF93DF93FC01B2809480CD
:1027100081E08483CCE5D3E006ED11E08BE4A82EC4
:1027200088248394EE24EA94F12C2BE4C22ED12C3D
:1027300091101DC01B821A8298014A81698188818B
:102740000E94B00825960D5F1F4F85E0C63ED80752
:1027500079F7DF91CF911F910F91FF90EF90DF906C
:10276000CF90BF90AF909F908F900C94BF122B8111
:10277000222309F121502B833C818A2D821B3111A8
:1027800001C0822F9091BE09899FC0011124B6011A
:102790000E9476296A83211104C0332311F01C8220
:1027A000AB8222E02B1540F28091BC098883809196
:1027B000BD098983C1CF0E94F729823091400CF076
:1027C000BBCF82E08B15C0F40E94F729B7010E94AD
:1027D0008A29888322E02B1590F40E94F729209102
:1027E000BD092695622F70E00E948A29280F29834F
:1027F0001A82AB828C82A0CF8091BC09EACF209153
:10280000BD09F5CFEF92FF921F93CF93DF93EC01B9
:1028100086EDE82E81E0F82E10E08C819701409142
:10282000BE096091BD09810F0E94B0081F5F83E05F
:10283000E80EF11C123889F70E94BF129A818C8130
:1028400090FF08C08F5F8C83DF91CF911F91FF9025
:10285000EF9008958150F7CFCF92DF92EF92FF92E1
:102860000F931F93CF93DF93FC018281DD24DA94D1
:1028700080FD02C0DD24D39406ED11E0D0E0C0E07D
:10288000F80111821082128294E0E92EF12CC12C01
:102890008091D3018C0D87FD8E57082E000C990B6B
:1028A0008C179D0791F48091BE098E9DA0018F9D8C
:1028B000500D112455954795559547959801609170
:1028C000BD098091BC090E94B008CD0CF1E0EF1A5F
:1028D000F108F1F621960D5F1F4FC238D10581F640
:1028E0000E94BF128091D30191E0D91210C08111D2
:1028F0000CC081E88093D301DF91CF911F910F919C
:10290000FF90EF90DF90CF9008958150F3CF90E04B
:102910000196BE010E948A29EDCF0F931F93CF939A
:10292000DF93C6EDD1E0FE01118210821282339650
:1029300083E0EC35F807C1F710E000E08091D401A6
:10294000082E000C990B081719077CF180911001D3
:10295000082E000C990B801791073CF19E014091C5
:10296000BE096091BD098091BC090E94B0080F5F4B
:102970001F4F23960238110509F70E94BF1280915C
:102980000F019091D401980F9093D4019091100170
:10299000980F9093100119161CF0819580930F01E8
:1029A000DF91CF911F910F910895198218821A8299
:1029B000DECFEF92FF920F931F93CF93DF93EC0143
:1029C0008C819D810196817099279D838C8386EDF2
:1029D000E82E81E0F82E10E005E5812F86952C8108
:1029E0003D81820F932F911D817097014091BE0907
:1029F0006091BD09809F802D11240E94B0081F5F47
:102A000083E0E80EF11C123841F7DF91CF911F915E
:102A10000F91FF90EF900C94BF12EF92FF920F93E3
:102A20001F93CF93DF938C01C6EDD1E0F12CE12C05
:102A3000F80194816091BD098091BC09F1E4EF1621
:102A4000F104FCF49923F9F09E014091BE090E9423
:102A5000B0082FEFE21AF20A239682E8E816F10492
:102A600039F70E94BF12F801848190E001968170CD
:102A700099278483DF91CF911F910F91FF90EF9061
:102A80000895992309F39E0140E0E1CF9091BB099D
:102A900090FF0CC0E6EDF1E08183608342833396C2
:102AA00093E0EC35F907C1F70C94BF1208950F932A
:102AB0001F93CF93DF9300D00F92CDB7DEB78C0179
:102AC0008091D50181110AC09E012F5F3F4F40EADE
:102AD0006FEF0E94B0088A818093D501F80164816C
:102AE000613069F08091D50140E0662361F040E0FB
:102AF000623011F44091D50180E060E004C0609143
:102B0000D50140E080E00E944615F801848190E004
:102B1000019663E070E00E948A2984830F900F90F1
:102B20000F90DF91CF911F910F910895CF93DF9375
:102B300000D00F92CDB7DEB79091BB0990FF0AC0CD
:102B40009E012F5F3F4F0E94B0084B8169818A81AF
:102B50000E9446150F900F900F90DF91CF9108952E
:102B6000CF93DF93EC01EC81F0E0E950FD4F44910D
:102B7000EBEBF9E0628181810E9496158C818F5F79
:102B80008C83DF91CF910895CF93DF93EC01EBEB32
:102B9000F9E0438162818C810E9496158C818F5F60
:102BA0008C83DF91CF9108955F926F927F928F9285
:102BB0009F92AF92BF92CF92DF92EF92FF920F93CC
:102BC0001F93CF93DF9300D00F92CDB7DEB7182FAE
:102BD000762E042F622E9091BB0990FF29C0E92F19
:102BE000E695AE2FB0E0A05EBE4F8C918093A70912
:102BF0009E7F923081F59E012F5F3F4F812F0E9473
:102C0000B0084B8169818A810E9446151093BC09E6
:102C10007092BD090093BE09662051F06091BB0916
:102C20007091BC098091BD099091BE090E947E0FF0
:102C30000F900F900F90DF91CF911F910F91FF9008
:102C4000EF90DF90CF90BF90AF909F908F907F904C
:102C50006F905F900895823019F40091BE09D6CF2D
:102C6000863019F41091BC09D1CF8930D9F389315C
:102C700069F6E9518E2F8170582EE695F0E0EE50FE
:102C8000FD4FA590B490BB2486EDE82E81E0F82E90
:102C9000D12CC12C92E8892E912CC601B4010E943E
:102CA0007629812F511013C0860F9701402F672D71
:102CB0000E94B008CA0CDB1C83E0E80EF11C8CE516
:102CC000E81683E0F80649F70E94BF129FCF861BE3
:102CD000ECCF9091BB0990FF36C09170811129C053
:102CE00092609093BB09662351F06091BB0970918B
:102CF000BC098091BD099091BE090E947E0F609130
:102D0000BB09669570E04BE050E084E091E00E94E2
:102D1000102A892BA9F01092A80981E080938609D6
:102D200020E04091BE096091BD098091BC090C94DE
:102D3000D4158B3210F09465D4CF880F982BD1CF57
:102D40000E94A912EACF089521E030E0A90102C053
:102D5000440F551F8A95E2F7CA012091A9096623FD
:102D600099F0822B8093A9098091A809811106C04E
:102D70008091BB0960E086950E9469168091BB092D
:102D800080FD05C00C94BF1280958223EBCF08957F
:102D9000CF92DF92EF92FF926B017C0160E0C11451
:102DA000D104E104F10441F0DC01C601B695A79518
:102DB00097958795682F617081E00E94A41660E066
:102DC000C114D104E104F10459F0D701C60132E085
:102DD000B695A795979587953A95D1F7682F617025
:102DE00082E00E94A41660E0C114D104E104F10461
:102DF00059F0D701C60123E0B695A7959795879519
:102E00002A95D1F7682F617083E00E94A416C092C2
:102E1000F009D092F109E092F209F092F309FF90E3
:102E2000EF90DF90CF900C9407080F931F93609161
:102E3000F0097091F1098091F2099091F3098B01E9
:102E40009C01067011272227332706301105210522
:102E5000310529F468601F910F910C94C816677FA3
:102E6000FACF0F931F9341E050E060E070E004C0A0
:102E7000440F551F661F771F8A95D2F7CB01BA0101
:102E800060957095809590950091F0091091F109E9
:102E90002091F2093091F309602371238223932357
:102EA0001F910F910C94C816909165098095892304
:102EB00080936509282F277071F4282F082E000CA5
:102EC000330B9217130639F08595859585950E94E9
:102ED00031171092650908950F931F9341E050E058
:102EE00060E070E004C0440F551F661F771F8A958D
:102EF000D2F78091F0099091F109A091F209B09177
:102F0000F3098A019B01082B192B2A2B3B2BC901A2
:102F1000B8011F910F910C94C81660E070E0CB01CE
:102F20000C94C81680FF08C0209A289881FB662759
:102F300060F980E00C94A4162098F7CF8091BB092B
:102F40008695815009F48AE261E00C9469168091BB
:102F5000BB0986958F5F8B3208F081E061E00C94AD
:102F600069169091BB0990FF07C09695981720F0BD
:102F7000961710F40C94A71761E00C9469164F9201
:102F80005F926F927F928F929F92AF92BF92CF92F9
:102F9000DF92EF92FF920F931F93CF93DF9300D0B6
:102FA00000D00F92CDB7DEB77C01FC018381948104
:102FB000892B31F08081918189238F3F09F0ECC604
:102FC0000F900F900F900F900F90DF91CF911F9166
:102FD0000F91FF90EF90DF90CF90BF90AF909F90B8
:102FE0008F907F906F905F904F9008950E942E0E6B
:102FF000182F682F89819A810E94900769817A81B0
:10300000812F0E94970C8C018091EE08F70192812C
:103010008111E6C091110CC00430FDE51F0709F4D1
:10302000ADC008F056C003303DE5130709F477C082
:10303000F7019281992309F4A4C6980122513F45D2
:103040002031310508F076C68FEF93E00E941D2AEB
:10305000025156EF852E52E0952E81116DC001115F
:1030600047C11C821B82662463944AE0542E84016B
:103070000F5F1F4FC4010E941D2A89831A82882373
:1030800009F45AC09FEF980F933008F040C18A832B
:10309000698232E0830E911CC8010E941D2A8B8335
:1030A000882309F449C08E010F5F1F4FF80120816A
:1030B0002223E9F2213009F063C1918182819130AC
:1030C00009F027C10E5F1F4F0E941E0B0F5F1F4F9D
:1030D000EDCF06308DE5180709F45CC007309DE59B
:1030E000190709F0A5CFC0901101D090120180906E
:1030F000F0099090F109A090F209B090F3090E94B4
:10310000C20F0E948D1706EE18E0C016D10609F412
:1031100056C0C8010E94BF1706501109F6CF0E9481
:10312000C20F0E948D178CEE95E09093ED0880936E
:10313000EC0881E08093EE0880916509877009F4BE
:103140003FCFF7018281882309F43ACF82E00F90C4
:103150000F900F900F900F90DF91CF911F910F91D3
:10316000FF90EF90DF90CF90BF90AF909F908F90A7
:103170007F906F905F904F900C9454170E94C20FF5
:103180000E948D1786EE98E09093ED088093EC08EE
:1031900082E0D0CFC0901301D09014018090F0094C
:1031A0009090F109A090F209B090F3090E94C20F2B
:1031B0000E948D170CEE15E0C016D10659F40E943E
:1031C000C20F8092F0099092F109A092F209B09298
:1031D000F309B2CFC8010E94BF170A5F1F4FECCF9F
:1031E000980123503D4523303105B8F521E00530E5
:1031F0001D4509F420E0291709F49ECF813029F0FC
:103200008230B9F01092EE0897CF8091EC0890913F
:10321000ED08F5E08C3E9F0729F0FC0136972281EE
:10322000211105C09093140180931301EBCFCF01BE
:10323000F0CF8091EC089091ED0828E0863E92074F
:1032400029F0FC0136962281211105C090931201CC
:1032500080931101D7CFCF01F0CF813021F182309F
:1032600009F0E6CE2091130130911401A091EC08F1
:10327000B091ED08911105C098E0A63EB90709F498
:10328000D7CECD0106962817390709F4D1CE86E0AE
:10329000F70101900D928A95E1F78091EC089091E9
:1032A000ED08069720C02091110130911201A091E4
:1032B000EC08B091ED08911105C085E0AC3EB8076F
:1032C00009F4B6CECD0106972817390709F4B0CE18
:1032D00086E0F70101900D928A95E1F78091EC0864
:1032E0009091ED0806969093ED088093EC08A0CE9F
:1032F0008114F4E09F0609F41FCFC4010E941D2A27
:10330000811101C001502FEF821A920AA8CE480104
:10331000CACE923029F40E5F1F4F0E94690AD6CEA2
:10332000933029F40E5F1F4F0E943808CFCE94309F
:1033300019F00F5F1F4FCACE0E5F1F4F30E020E025
:10334000B8016F5F7F4FF80141818053990B8A303C
:10335000910558F02150310908F4B8CE8FE99FE06B
:103360000197F1F700C00000F5CF529EF001539E87
:10337000F00D11249C012E0F3F1F842F8B01E0CFF5
:10338000E22FF0E0E158FA4F7490822F86958695EF
:10339000869590E0FC01E159FA4FA4902770B12C7A
:1033A000022E02C0B594A7940A94E2F7E1E0AE229F
:1033B000BB24FC01E15AFA4FC490D12C02C0D59431
:1033C000C7942A95E2F7F1E0CF22DD24A114B104DD
:1033D00019F081EE0E94690AC114D10419F086EE39
:1033E0000E94690A872D0E941E0BCD2819F086EED7
:1033F0000E943808AB2809F469CE81EE95CF81E0B0
:103400000E946C1703C081E00E9431170E941517BB
:1034100093CE82E0F5CF053F2CE5120709F461C099
:1034200008F45BC027E245EE66EE063F8CE5180720
:1034300009F4A3C4992309F4C0C41092EF08023020
:10344000ECE51E0708F430C10631FCE51F0738F033
:1034500098012A5F3C452930310508F025C10E94BA
:10346000630C90937F0980937E0900312CE512074D
:1034700009F4E9C008F073C008308CE5180709F4B6
:10348000D4C008F045C00430ECE51E0709F4C1C003
:1034900078F502302CE5120709F4B5C080917E0959
:1034A000826003301C4509F4B1C060917E0910911F
:1034B0007F0984E090E00E94312A612F81E290E050
:1034C0000E94312A0E94C20F37CE27E245EE65EEF8
:1034D00054C426E241EE60EE50C427E245EE64EEAD
:1034E0004CC426E241EE62EE48C428E241E0EFCF50
:1034F00006308CE5180709F494C080917E09886035
:1035000007301C4508F482C080917E0980627EC02D
:1035100080917E098D7F0C30ECE51E0709F476C0A2
:1035200070F480917E098C600A302CE5120709F452
:103530006DC008F47EC080917E098E7F67C00E301A
:103540008CE5180709F47BC080917E098B7F0F30D2
:103550001C4508F45BC080917E098F7E57C00B3FED
:10356000ECE51E0709F459C030F503312CE51207CC
:1035700009F471C078F401318CE5180709F467C0CB
:1035800002311C4509F091CF0E94C20F80917E0943
:103590008F773CC00531ECE51E0709F464C008F4E0
:1035A00078C080917F0981600A3F1C4509F07DCF7A
:1035B00080937F097ACF0F3F3CE5130709F44FC092
:1035C00088F480917F098D7F0D3F9CE5190781F379
:1035D00080917F098E7F0E3F1C4550F380917F09BB
:1035E0008360E6CF0130FDE51F0709F45BC008F4F6
:1035F00046C060E002301D4509F057CF8EE090E0F4
:103600000E94312A52CF80917E09816080937E0989
:103610004CCF80917E098460F9CF80917F098260D0
:10362000C7CF80917E098061F1CF80917E0980644F
:10363000EDCF0E94C20F80917E098068E7CF809114
:103640007E09877FE3CF80917E098F7DDFCF8091D8
:103650007E098F7BDBCF80917E09837FD7CF8091DE
:103660007F098C7FA5CF80917E0982FB992790F9F5
:1036700021E0922790FB82F990FB83F9C7CF8091DC
:103680007F09982F909591708E7F892B90FB81F9FF
:103690008FCF0E94C20F90917E09892F97FB87F9E7
:1036A0008058B4CF61E0AACF809168090631ECE57B
:1036B0001E0709F08EC38A7A91E009F490E0909396
:1036C000F008811106C089E20E9434070E94C406F6
:1036D00033CD85E3F9CF85E379C38091BB0980FFC2
:1036E0001BC08E7F8093BB096091BB097091BC09A0
:1036F0008091BD099091BE090E947E0F1092A80989
:10370000FFEF20E732E0F15020403040E1F700C009
:1037100000000E94BF1210CD81608093BB0961E060
:1037200086950E94691608CD4EE957E167EA77E170
:103730000E94950801CD47EA57E16EE977E1F8CF9D
:1037400042E951E26BE971E2F3CF4BE951E262E900
:1037500071E2EECF4AE751E266E871E2E9CF46E86E
:1037600051E26AE771E2E4CF42E651E26EE671E2CD
:10377000DFCF4EE651E262E671E2DACF41EA5FE086
:1037800060E97FE0D5CF40E95FE061EA7FE0D0CF3C
:1037900061E081E0C6CF65E082E00E94B117CCCC49
:1037A00068E086E0FACF6EE089E0F7CF64E18FE071
:1037B000F4CF67E185E1F1CF61E088E1B2CF62E269
:1037C00089E1EBCF61E083E2ACCF01158CE518070E
:1037D00009F447C00E3D1C4509F450C0F7010081B3
:1037E0001181992309F44DC0C8010E942E0ED82ED4
:1037F000682FC8010E949007B8018D2D0E94A40C6B
:103800008C01882EF701A580A2943FE0A322D280EC
:10381000D1101092670980916509877099F0DD20B9
:1038200089F0812F807F803421F080E2800F883002
:1038300048F082E00E945417809165098770CC247B
:10384000C3948111C12CB12EB2942FE0B222FBE0BF
:10385000FB1508F450C0EB2DF0E0EE51F54D0C9443
:103860009E290E94C20FFFEF24E33CE0F15020406C
:103870003040E1F700C000000E94450A0E941B0F83
:103880005BCCC8010E946807D82EB6CF212F2F70BD
:10389000A22E107F19F0A29490EFA922DD20C9F08A
:1038A000AA2069F080E2800F883010F081100BC0F0
:1038B00080916809A82AA09268090E94C406802FF6
:1038C0000E94690A18C080916709A82AA092670916
:1038D000F4CF802F0E943808AA2069F0A094005EDF
:1038E000083010F081103DC080916809A822A09294
:1038F00068090E94C406EB2DE850FF0B349720F4B2
:103900000E942C080E949217CC2009F459CB809178
:10391000650980FD55CBF7011282859585958595C2
:103920000E946C17C7010E94BF1780916509859599
:10393000859585950F900F900F900F900F90DF91C8
:10394000CF911F910F91FF90EF90DF90CF90BF909C
:10395000AF909F908F907F906F905F904F900C945E
:10396000311780916709A822A0926709C2CF312F31
:103970003F70932E107F103219F0929480EF9822AE
:10398000882071F081E0881661F1DD20B9F1AA206C
:1039900071F1F701858180FF92CF8F70858327C0F9
:1039A000DD2091F090916909892D892BA11003C028
:1039B0000E94D107A0CFE1E0AE12FACF981709F428
:1039C0009ACF8093690997CFA11006C00E94BE06C6
:1039D000892D0E94C6078FCFF1E0AF1609F48BCF77
:1039E000F5CFDD2031F025E02A1508F484CF892DAC
:1039F000DFCF34E03A1508F47ECFEACFAA2041F3B6
:103A0000F9E38F1290C12FEF37EE83E02150304061
:103A10008040E1F700C0000086C1812F8695869521
:103A2000837061F0813009F066CFC8019370D110C6
:103A300002C090E080E00E94DB075DCFC801937078
:103A4000D11002C090E080E00E94F10754CF802F97
:103A5000DD2029F00E9425060E94A8064CCF0E9476
:103A60006405FACF812F837009F066C0D11043CF6F
:103A7000802F829586958770880F880F602F6F70D2
:103A8000462E512C712C612C082E04C0440C551C60
:103A9000661C771C0A94D2F740E050E0BA0104FF9C
:103AA0000FC04FE050E060E070E004C0440F551FCD
:103AB000661F771F8A95D2F740955095609570954F
:103AC000812F869586958370823019F1D8F4009104
:103AD0006A0910916B0920916C0930916D09813050
:103AE00069F04429552966297729CB01BA01602359
:103AF0007123822393230E942208FDCE402A512A5B
:103B0000622A732ACB01BA0164297529862997296B
:103B1000F2CF442955296629772900916A09109125
:103B20006B0920916C0930916D09CB01BA016027B6
:103B3000712782279327DFCF8695DD2011F0812F13
:103B40008170882309F4D7CE802F8295869587705F
:103B5000880F880F602F6F70462E512C712C612CAE
:103B6000082E04C0440C551C661C771C0A94D2F71E
:103B700040E050E0BA0104FF0FC04FE050E060E0C9
:103B800070E004C0440F551F661F771F8A95D2F757
:103B90004095509560957095812F86958695837098
:103BA000823019F1D8F40091F0091091F1092091B7
:103BB000F2093091F309813069F0442955296629C9
:103BC0007729CB01BA0160237123822393230E94BA
:103BD000C81691CE402A512A622A732ACB01BA0113
:103BE0006429752986299729F2CF44295529662900
:103BF00077290091F0091091F1092091F209309193
:103C0000F309CB01BA016027712782279327DFCF01
:103C10001F70DD2029F0812F0E946C17802FC8CEE5
:103C2000802F0E94C607812F0E94311764CE802FFB
:103C300092EF891609F450C0981578F0E0EF8E16CF
:103C400019F1F1EF8F1609F43FC0DD2009F466C0C9
:103C5000A11035CE812F8F713CC023EF821609F45D
:103C600040C034EF8312F1CFDD2009F44CC01F7146
:103C7000812F0E946C17E8E01E9FC0011124836011
:103C800080936509812F25C0DD20C9F084E08A1565
:103C900008F431CE1F7161E070E080E090E004C074
:103CA000660F771F881F991F1A95D2F70091F009A8
:103CB0001091F1092091F2093091F309A4CF95E018
:103CC0009A1508F418CEE6CF812F8F71DD2009F404
:103CD000ABCF0E946C170FCE812F8F71DD20C9F3FF
:103CE000A3CFDD2069F01F7161E070E080E090E01B
:103CF00004C0660F771F881F991F1A95D2F767CFE8
:103D00000E948D17F8CD81E00E945417F1E0FA155A
:103D100008F0F1CD82E00E945417EDCDAA2039F0D1
:103D2000893309F470CE802F0E943808E4CD812FAA
:103D30008F717ACF0031FFE51F0709F460CB0131A5
:103D40002FE5120709F465CB033F2CE5120709F4B0
:103D5000C0CB08F060CB083D8CE5180709F4B5CB63
:103D6000093DECE51E0709F4C0CB073DFCE51F0744
:103D700009F060CB26E241EE61EEC7010E94310BF3
:103D8000DBC900313FE5130709F43DCB01318FE575
:103D90001807D1F682E038CB85E0DE01119601905C
:103DA0000D928A95E1F7F701228189819A8121118B
:103DB0001DC90E946807182F21C906311C4509F04A
:103DC0000DCD8091F008811186CC89E20E9409070F
:103DD0007DCC8272F801E25CFC45E431F10508F02B
:103DE000F4CCE251F54D0C949E291F93CF93DF93B1
:103DF0008091F608807FA9F48091F308882389F0E8
:103E000080912809D091F7086091F1087091F2082B
:103E1000A091F408B091F508C62FC72316E0D81377
:103E200004C0DF91CF911F91089590E0109711F099
:103E3000CF3F19F401968770F2CF189F9001199F18
:103E4000300D1124F901E850F74F41814713F2CFAB
:103E500040814613EFCF42814111ECCF4381548121
:103E60004A1B5B0B483C510528F78091F6088F7080
:103E700080618093F608F901E350F74F80818F70DD
:103E80008061808381EF98E00E94BF17DF91CF911E
:103E90001F910C94BC07AF92BF92CF92DF92EF922A
:103EA000FF920F931F93CF93DF93CDB7DEB7619748
:103EB0000FB6F894DEBF0FBECDBF8C0185E0F801D0
:103EC000DE011D9601900D928A95E1F7F80180813F
:103ED0009181E28021EFA22E28E0B22E6091F408B9
:103EE0007091F5086115710509F43EC13091F10832
:103EF0004091F208232F24232F3F09F435C1C380BA
:103F0000D480F090F308F601E61BF70BFF2009F4CC
:103F1000FBC02091F608522F507FE83CF10508F0D5
:103F2000BBC0511178C0FE2C491321C038131FC0EB
:103F3000E1101DC02F7020612093F608C5010E947A
:103F4000BF178091F608F80185838F2D61960FB613
:103F5000F894DEBF0FBECDBFDF91CF911F910F91BF
:103F6000FF90EF90DF90CF90BF90AF900895CD2855
:103F700029F0282F29232F3F09F014C120E0F22F28
:103F8000F170DF2E20FF3DC0209128094091F708F5
:103F900056E0241315C08D879E878D859E850E94CF
:103FA000700E292F22952F702230F8F0243020F542
:103FB0009F70F9F0F8019581907FD9F4D12C1FC042
:103FC00030E0529FF001539FF00D1124E850F74F5D
:103FD0006181961306C06081861303C06281E61278
:103FE00010C02F5F3F4F2770D4CF9F7011F08823F0
:103FF00029F3805E883010F3C8010E94BF17FD2CA2
:10400000A4CFEE2009F4A1CF8091F60881608093BF
:10401000F608F12C9ACF491312C0381310C0E110E2
:104020000EC0F8012583C8010E94BF1786E0F80181
:10403000A1EFB8E001900D928A95E1F786CF8D87C8
:104040009E878D859E850E947A0E882309F1EE2039
:10405000F9F08091F608803270F02091F1083091EB
:10406000F20838872F831986DB86CA868C87CE01B3
:1040700007960E94BF1786E0F801A1EFB8E0019013
:104080000D928A95E1F70E94F51EFF24F3945DCF0F
:10409000C8010E94BF17F9CF51110AC081EF98E003
:1040A0000E94BF1786E0F50111928A95E9F7B1CF1A
:1040B00049130FC038130DC0E1100BC0F801258360
:1040C000C8010E94BF1786E0F50111928A95E9F7B1
:1040D0003CCF8D879E878D859E850E947A0E882392
:1040E000B9F2EE20A9F28091F608803220F22091F8
:1040F000F1083091F2083A8329831B82DD82CC8259
:104100008E83CE010196B5CFE83CF105E0F6FE2C9A
:10411000EE2009F4BDCF491316C0381314C08091A6
:10412000F60880FD83CF982F907F09F47FCFF801A8
:104130008583903F09F477CF982F907F905F8F70A1
:10414000892B858370CF8D879E878D859E850E9464
:104150007A0E811190CF8091F60881608093F608E5
:10416000C8010E94BF17F1CEEE2009F491CF8D87D0
:104170009E878D859E850E947A0EF82E882309F4ED
:1041800087CF86E0F801A1EFB8E001900D928A9503
:10419000E1F78091F1089091F2080E94700E0E9460
:1041A000F51ED3CE21E02E25EACE1F93CF93DF93C9
:1041B000CDB7DEB767970FB6F894DEBF0FBECDBFA1
:1041C0004B8B5C8B6D8B7E8B8F8B1A8A198A85E06B
:1041D000FE017396DE011D9601900D928A95E1F71E
:1041E00086E0FE013D96DE01179601900D928A95BC
:1041F000E1F7CE0107960E944B1F882389F016E055
:10420000809128099091F708891349C067960FB6E5
:10421000F894DEBF0FBECDBFDF91CF911F910895FF
:1042200086E0FE013796DE01119601900D928A9587
:10423000E1F78A859B85892B11F38F8198858923E6
:104240008F3FE9F22091F70830E0C90101968770AD
:104250009927409128094817190671F40E94C20F46
:104260001092F7081092280986E0E1EFF8E0DF01EC
:104270001D928A95E9F7C3CF96E0929FD001939F54
:10428000B00D1124A850B74FFE01319601900D9248
:104290009A95E1F78093F7080E94BC07B0CF819F01
:1042A000C00111248850974F0E944B1F882309F4A6
:1042B000ADCF8091280990E001968770992780936F
:1042C00028099ECFEBEBF9E0438128E0421B08F47C
:1042D00040E021E0628181810C94D415EBEBF9E0A0
:1042E000438128E0420F08F44FEF21E06281818191
:1042F0000C94D415EBEBF9E0628128E0621B08F422
:1043000060E021E0438181810C94D415EBEBF9E06E
:10431000628128E0620F08F46FEF21E04381818120
:104320000C94D415EBEBF9E0818121E043816281AB
:1043300088500C94D415EBEBF9E0818121E04381A6
:104340006281885F0C94D4151F920F920FB60F9262
:1043500011242F933F934F935F936F937F938F938A
:104360009F93AF93BF93CF93DF93EF93FF93D0913E
:10437000E900DF708091EC00C82FC17080FDC0E8BB
:104380001092E9008091F000877F8093F00078948C
:104390000E94D70F1092E9008091F000886080930E
:1043A000F000CD2BCF70C093E900FF91EF91DF912A
:1043B000CF91BF91AF919F918F917F916F915F91BD
:1043C0004F913F912F910F900FBE0F901F90189516
:1043D0001F920F920FB60F9211242F933F934F937A
:1043E0005F936F937F938F939F93AF93BF93EF935D
:1043F000FF938091E10082FF09C08091E20082FF7B
:1044000005C08091E1008B7F8093E1008091DA000C
:1044100080FF24C08091D80080FF20C08091DA0006
:104420008E7F8093DA008091D90080FFB2C080E156
:1044300089BD82E189BD09B400FEFDCF81E0809392
:10444000EF098091BA09811109C00E94A6030E9458
:1044500099048091E20084608093E2008091E10001
:1044600080FF17C08091E20080FF13C08091E200BE
:104470008E7F8093E2008091E20080618093E20071
:104480008091D80080628093D80019BC85E0809329
:10449000EF098091E10084FF40C08091E20084FF39
:1044A0003CC080E189BD82E189BD89B5982F9170BA
:1044B00080FFFBCF8091D8008F7D8093D8008091C2
:1044C000E1008F7E8093E1008091E2008F7E8093F7
:1044D000E2008091E20081608093E2008091E60931
:1044E000882309F45CC084E08093EF090E94C20F26
:1044F0000E942C080E9492171092C1098091C00955
:10450000882349F08091BB0981608093BB0960E0FA
:1045100086950E9469160E94A9128091E10083FF8E
:1045200027C08091E20083FF23C08091E100877F54
:104530008093E10082E08093EF091092E609809178
:10454000E1008E7F8093E1008091E2008E7F809376
:10455000E2008091E20080618093E20042E060E04E
:1045600080E00E9467048091F00088608093F000F2
:10457000FF91EF91BF91AF919F918F917F916F913B
:104580005F914F913F912F910F900FBE0F901F9011
:10459000189519BC1092EF091092BA095FCF80915B
:1045A000E30087FD93E09093EF09A0CFCDB7DEB78E
:1045B000EE970FB6F894DEBF0FBECDBF84B7877FEE
:1045C00084BF0FB6F894A8958091600088618093AD
:1045D0006000109260000FBE80E890E00FB6F89483
:1045E00080936100909361000FBE85B7806885BF9E
:1045F00085B7806885BF0E94A6030E9499048091B8
:10460000E20084608093E20078948091EF0988232F
:10461000A1F01091E9001F709091EC00892F81703A
:1046200090FD80E8182B1092E9008091E80083FD4E
:104630000E94D70F1F701093E90082E084BD93E0C1
:1046400095BD9AEF97BD80936E00ACE7B1E022E88C
:1046500031E041E050E08D91E82FE295EF70F0E01D
:1046600011A18F70BA0101C0660F8A95EAF7962FE3
:104670009095912391A382A1862B82A32A173B07B1
:1046800051F7A2E8B1E021E931E041E050E08D913D
:10469000E82FE295EF70F0E011A18F70BA0101C030
:1046A000660F8A95EAF7962F9095912391A382A1A0
:1046B000862B82A32A173B0751F7EFE6F9E08BE739
:1046C00099E0AAEAB9E0119211921D921D928E17FB
:1046D0009F07C9F70E94950B8FE39CE90197F1F7BB
:1046E00000C000000E94950B8091AA0980FF0BC0BA
:1046F00080E00E94030F6FEF7FEF90E080E00E9468
:104700004F2A0E94450A90E080E00E942B2A8C3EAE
:104710009E4F11F00E941B0F82E290E00E941D2A22
:10472000813209F06CC583E290E00E941D2A893035
:1047300009F065C584E290E00E941D2A803309F0EB
:104740005EC590E080E00E942B2A8C3E9E4F11F0C7
:104750000E941B0F82E090E00E941D2A80939A091C
:104760000E94630C90937F0980937E0983E090E020
:104770000E941D2A682F70E090E080E00E942208CD
:1047800080917B09811136C090E080E00E942B2A45
:104790008C3E9E4F21F00E941B0F0E94B20F88E0BA
:1047A00090E00E94252A6093BB097093BC09809316
:1047B000BD099093BE096E7F71F40E94B20F88E02C
:1047C00090E00E94252A6093BB097093BC098093F6
:1047D000BD099093BE090E949A081092A809809181
:1047E000BB0980FF04C060E086950E94691681E0E5
:1047F00080937B092198299A22982A9A83B18695D9
:1048000081701A9943C290E0892B80938B09609143
:104810007E09606860937E0910917F0984E090E0D2
:104820000E94312A612F81E290E00E94312A8FEFAD
:1048300095E090937D0980937C0985E191E09093C8
:1048400081098093800954E0E52EF12C6CE0C62E9E
:1048500066E0D62E8091EF09853009F419C20E94D6
:10486000950BEBE9F9E0AAEAB9E010E000E0702F5F
:104870008D919D91219131912817390709F46AC2D0
:104880002827392760E0AA24A394B12CA9014A2142
:104890005B21452B09F458C26DAB7EAB9C012A21EC
:1048A0003B2191E0232B09F490E09FAB0E949C06F2
:1048B0008160782F99AF88AF4DA95EA96FA989ADA6
:1048C0000E94D520000F111FF801E556F64F808198
:1048D0009181A826B926B182A0828091A809882357
:1048E00009F441C08091A709E091BB09E695E81B56
:1048F000E0938509823009F044C2F0E0E65EF94FAA
:10490000E4910E2F10E080EBA82E85E1B82E809167
:104910008609882389F0109286090E949C069801D6
:1049200020953095820F931F90938409809383097B
:1049300010928809109287098091830990918409C7
:104940000E948D068017910770F0E0918309F09125
:1049500084090E0F1F1F109384090093830983E8B5
:1049600099E0F5010995E0918B09EE0FEE0FE093C8
:104970008B0983B181FB662460F81A996DC280E0CF
:104980008629E82BE0938B09EF70F0E0EF56FE4F9D
:10499000808190918A09890F80938A09843034F14B
:1049A000809189098F5F8093890905E008AB14E045
:1049B00019AB81E08AAB0E949C068160782F9CAB8A
:1049C0008BAB48A959A96AA98CA90E94D5200BA72D
:1049D0001CA71DA60E949C068160782F9FA78EA70A
:1049E0004BA55CA56DA58FA50E94D52080918A0955
:1049F0008D3F34F58091890981508093890903E0C6
:104A00000EA314E01FA381E088A70E949C0681608A
:104A1000782F9AA789A74EA15FA168A58AA50E94B1
:104A2000D52009A31AA31BA20E949C068160782F9F
:104A30009DA38CA349A15AA16BA18DA10E94D52051
:104A400080918A09082E000C990BB7010E948A29CF
:104A500080938A0986E0E3E9F9E0DE01119601908E
:104A60000D928A95E1F78091950990919609892B8D
:104A700009F468C080919109909192090E948D0675
:104A80009C0190919009992309F4D4C323333105F3
:104A900008F458C09F3F19F09F5F909390091092BF
:104AA00097091092980980919509181624F40E948C
:104AB0000506809395098091950987FF05C00E949E
:104AC000050681958093950980919609181624F41E
:104AD0000E940506809396098091960987FF05C07C
:104AE0000E9405068195809396093091950933239C
:104AF000B1F020919609222391F045EB3403C001D7
:104B00001124992309F4ABC19093950945EB240333
:104B100090011124332309F4A6C1309396090E9411
:104B2000A80680918E0990918F09909392098093A5
:104B3000910986E0FE013196A3E9B9E001900D925A
:104B40008A95E1F78091970990919809892B09F44A
:104B500068C080918C0990918D090E948D069C01FE
:104B600090919009992309F460C32536310508F422
:104B700058C09F3F19F09F5F90939009109295093C
:104B80001092960980919709181624F40E94E30563
:104B9000809397098091970987FF05C00E94E305DC
:104BA00081958093970980919809181624F40E94A2
:104BB000E305809398098091980987FF05C00E94BA
:104BC000E305819580939809309197093323B1F0DB
:104BD00020919809222391F045EB3403C001112460
:104BE000992309F444C19093970945EB240390015C
:104BF0001124332309F43FC1309398090E94A80679
:104C000080918E0990918F0990938D0980938C09E2
:104C100086E0FE013196A3E9B9E001900D928A95F4
:104C2000E1F70E942C0890919909891731F00E94B0
:104C30002C08809399090E9492178091EF09843083
:104C400009F008CE83E08093E9008091E80082FFBC
:104C500001CE8091E80090E085FF06C00E94C50368
:104C6000882309F40CC191E08091E8008B77809350
:104C7000E800992309F4EECDE981E150E33108F031
:104C80005DC1F0E0EE5FF44D0C949E2992E0BCCD46
:104C90008091EF09843009F444C01092820988E1C0
:104CA00090E020E40FB6F894A895809360000FBEC2
:104CB0002093600080E00E9492171092A8098091D2
:104CC000C109811117C081E08093C1098091BB099E
:104CD000982F91709093C0098E7F8093BB094FEFFE
:104CE00080E792E0415080409040E1F700C0000032
:104CF0000E94BF1283B7817F846083BF83B78160C6
:104D000083BF7894889583B78E7F83BF0FB6F8945E
:104D1000A895809160008861809360001092600087
:104D20000FBE8091E509882309F494CD0E94950B6C
:104D3000EAEAF9E081919191892B09F04AC229E0D0
:104D4000E63BF207B9F786CD6F5FAA0CBB1C6F304C
:104D500009F09CCD0F5F1F4F0630110509F087CD7C
:104D60008FEF8AAF8BAF1CAE0E949C068160782FBC
:104D70009EAF8DAF4AAD5BAD6CAD8EAD0E94D520C0
:104D8000ACCD863059F4F0E0E95EF94FE4910E2F96
:104D900010E0B4ECAB2EB5E1BB2EB9CD893061F497
:104DA000E695F0E0EC5EF94FE4910E2F10E0A2E002
:104DB000AA2EA4E1BA2EABCD8F3061F4E695F0E0D7
:104DC000EF5EF94FE4910E2F10E0FCE2AF2EF4E11C
:104DD000BF2E9DCD853159F4F0E0E25FF94FE491AB
:104DE0000E2F10E0EDE8AE2EE4E1BE2E90CD08EEE1
:104DF00013E059EDA52E54E1B52E883109F487CD85
:104E0000833241F4F6010591149177E5A72E75E1FF
:104E1000B72E7DCD04EF11E04DE0A42E45E1B42E78
:104E2000843209F474CD00ED17E030E6A32E35E0AE
:104E3000B32E853209F06BCD8E2F63E00E946A2974
:104E4000E92FF0E0E75FF94FE4910E2F10E069E7FA
:104E5000A62E63E1B62E5BCD82E090E091CD81E09D
:104E60008093950953CE81E08093960958CE81E0D6
:104E700080939709BACE81E080939809BFCE00E273
:104E800010E0CE0101965C018091E80085FD0AC02A
:104E90008091E8008B778093E8000E94C503882307
:104EA00099F3E1CE8091F100F50181935F0101500A
:104EB000110951F7D8CE1A8289E08B8319C08A81F3
:104EC000823009F4A9C18330C1F08130B9F52FB720
:104ED000F8946091B6097091B7098091B8099091E2
:104EE000B9092FBF0E94A4296B837C838D839E8385
:104EF000CE0101960E942004ADCCDE011196EAEAB3
:104F0000F9E080819181329612969C9312971396C4
:104F10008C931397129629E0E63BF20791F7E8CFBE
:104F20008A81823059F46B817C818D819E810E94BF
:104F3000A42985E290E00E94312ADACF8FEF89839D
:104F4000D7CF4C816B818A810E94710C9827892769
:104F500098279E838D83CCCFAD80BE80BA24AB24AE
:104F6000BA248A810B814EE1049F8001112494EBC5
:104F7000899F000D111D11248C8190E0880F991FCD
:104F8000080F191F6B2DC80186960E94312A6A2DC1
:104F9000C8018796D0CF0E949E0EAACF8A81813801
:104FA000C1F060F4803809F0A3CF20E04B8160911C
:104FB000BD098091BC090E94D4159ACF823859F15D
:104FC000833809F095CF20E04091BE096C818B8138
:104FD000F2CF60E08B810E9469169B818091BB09B2
:104FE000911111C08E7F8093BB091092A809EFEF39
:104FF000F0E722E0E150F0402040E1F700C000007F
:105000000E94BF1275CF81608093BB0960E08695D6
:105010000E9469166DCF8B818093BF0969CF8A8109
:10502000813899F030F4803809F062CF8091BE0960
:1050300044CF823891F0833809F05ACF8091BC096F
:105040008B838091BD098C8353CF8091BB0980FFF6
:1050500002C0869532CF80E030CF8091BF092DCF3E
:105060006091BB097091BC098091BD099091BE0906
:105070000E947E0F3DCF80E18A833ACF81E08A8310
:105080008AE01BCF0A811B81102701271027CE0140
:1050900001965C018C80FC01E80DF11D4F01C801F7
:1050A0008A509D4F8A149B0409F422CF0A30F1E004
:1050B0001F0750F40E941D2AF50184830F5F1F4FC4
:1050C000FFEFAF1ABF0AEBCFF5011482F7CF0A81C9
:1050D0001B81102701271027CE0101964C01AC80BF
:1050E000A00EB12EB11CC8018A509D4FA016B1066A
:1050F00009F4FECE0A30E1E01E0720F4F4016481D9
:105100000E94312AFFEF8F1A9F0A0F5F1F4FEBCFCC
:105110000E94F30EEDCE84E0AFCF0A811B811027F1
:1051200001271027CE0101965C018C80FC01E80D5F
:10513000F11D4F01C80186968A149B0409F4D8CE4C
:10514000003DF2E01F0750F40E941D2AF501848300
:105150000F5F1F4FFFEFAF1ABF0AECCFF5011482AC
:10516000F7CF0A811B81102701271027CE01019656
:105170004C01AC80A00EB12EB11CC8018696A016C1
:10518000B10609F4B5CE003DE2E01E0720F4F401BB
:1051900064810E94312AFFEF8F1A9F0A0F5F1F4F11
:1051A000ECCF80E00E94030F6FEF7FEF90E080E094
:1051B0000E944F2A9DCECE0101960E9420042FEF1F
:1051C00041EE84E0215040408040E1F700C0000003
:1051D00098CA80E189BD82E189BD09B400FEFDCF96
:1051E0008091D8008F7D8093D8008091E00082600C
:1051F0008093E0008091E00081FDFCCF2BCB60E04C
:1052000085E290E00E94312A0E949E0E0E94F30ED9
:1052100081E00E94030F95CA85E290E00E941D2A5A
:105220001B821C821D828E8363CE2D32314008F09A
:10523000A2CCF7CC2D32314008F02ECC83CC789420
:105240001F921FB61F9211248F939F93AF93BF930A
:105250008091B6099091B709A091B809B091B909A8
:105260000196A11DB11D8093B6099093B709A09333
:10527000B809B093B909BF91AF919F918F911F90D9
:105280001FBE1F9018951F921FB61F9211248F9357
:105290009F93AF93BF9380918209811113C0809136
:1052A000B6099091B709A091B809B091B909419692
:1052B000A11DB11D8093B6099093B709A093B809B9
:1052C000B093B909BF91AF919F918F911F901FBE6D
:1052D0001F901895991B79E004C0991F961708F044
:1052E000961B881F7A95C9F780950895AA1BBB1B4A
:1052F00051E107C0AA1FBB1FA617B70710F0A61BD6
:10530000B70B881F991F5A95A9F780959095BC01F6
:10531000CD01089597FB072E16F4009407D077FD72
:1053200009D00E94762907FC05D03EF4909581951E
:105330009F4F0895709561957F4F0895EE0FFF1F61
:105340000590F491E02D099469279627692778271D
:105350008727782708958F929F92AF92BF92CF921E
:10536000DF92EF92FF92CF93DF93EC016881798116
:105370008A819B81611571058105910521F464E2A3
:1053800079ED8BE597E02DE133EF41E050E00E94AD
:10539000652A49015A019B01AC01A7EAB1E40E94C8
:1053A000842A6B017C01ACEEB4EFA50194010E944C
:1053B000922ADC01CB018C0D9D1DAE1DBF1DB7FFD8
:1053C00003C00197A109B04888839983AA83BB834E
:1053D0009F77DF91CF91FF90EF90DF90CF90BF90BC
:1053E000AF909F908F9008950E94AB29089580E020
:1053F00091E00E94AB290895B0E0A0E08093000105
:1054000090930101A0930201B09303010895FB0161
:10541000DC0102C005900D9241505040D8F708952C
:10542000FC014150504030F001900616D1F7319701
:10543000CF010895882799270895F999FECF92BD45
:1054400081BDF89A992780B50895A6E1B0E044E0BF
:1054500050E00C94572AA8E1B0E042E050E00C94F0
:10546000572A262FF999FECF92BD81BDF89A019750
:1054700000B4021639F01FBA20BD0FB6F894FA9A9C
:10548000F99A0FBE08950396272F0E94322A0E9490
:10549000312A252F0E94322A242F0C94322A019679
:1054A000272F0E94322A0C94312ADC01CB01FC0107
:1054B000F999FECF06C0F2BDE1BDF89A319600B46D
:1054C0000D9241505040B8F70895052E97FB1EF4F9
:1054D00000940E947C2A57FD07D00E94972A07FC5F
:1054E00003D04EF40C947C2A50954095309521952C
:1054F0003F4F4F4F5F4F0895909580957095619500
:105500007F4F8F4F9F4F08950E94B92AA59F900DFE
:10551000B49F900DA49F800D911D11240895B7FF95
:105520000C94842A0E94842A821B930B0895A1E282
:105530001A2EAA1BBB1BFD010DC0AA1FBB1FEE1F0D
:10554000FF1FA217B307E407F50720F0A21BB30B58
:10555000E40BF50B661F771F881F991F1A9469F7D4
:1055600060957095809590959B01AC01BD01CF0130
:105570000895A29FB001B39FC001A39F700D811D2C
:105580001124911DB29F700D811D1124911D08954C
:10559000F894FFCF890E890E920E920E940E920E01
:1055A000920E920E890E890E990E920E920E990EFF
:1055B000BC10E4103711E410371117114F113711D7
:1055C00057126412461C461CB71CB71C0D1D271D24
:1055D0007B1C7B1C321D081E171E171E6D1B941B87
:1055E0009B1BA01BA51BAA1BAF1BB41BB91BBE1B7F
:1055F000C31BC81BCB1BD01BD31BD61BD91BDC1B4F
:10560000DF1BE21B5B275F279027A127AC27CB2757
:10561000CE270F283028D128DB283B283E284228D7
:0A562000672888288B288D28B12800
:10562A000100000001191A1B1C1D1E1F2021220146
:10563A0002E608EC056105FF09D409D009BE090193
:10564A000001020202020606060909090909090FF0
:10565A000F0F0F0F0F1515151819191919191919EF
:10566A001919192324252525252525818283E20058
:10567A00E900EA00B500B600B700CD008301CC000E
:10568A008A019201940121022302240225022602A0
:10569A0027022A02B300B4006F007000F0F1F4F59B
:1056AA00F6F73367663635349796949593929190C8
:1056BA003700FF0100010000FFFF0000010001FFA9
:1056CA00004022BCB2019001D400300649066906A6
:00000001FF
